{
  "_format": "hh-sol-artifact-1",
  "contractName": "BridgeOutImplementationV1",
  "sourceName": "contracts/BridgeOutImplementationV1.sol",
  "abi": [
    {
      "anonymous": false,
      "inputs": [
        {
          "indexed": false,
          "internalType": "bytes32",
          "name": "swapId",
          "type": "bytes32"
        },
        {
          "indexed": false,
          "internalType": "address",
          "name": "transmiter",
          "type": "address"
        },
        {
          "indexed": false,
          "internalType": "uint256",
          "name": "receiptIndex",
          "type": "uint256"
        },
        {
          "indexed": false,
          "internalType": "bytes32",
          "name": "receiptHash",
          "type": "bytes32"
        }
      ],
      "name": "NewTransmission",
      "type": "event"
    },
    {
      "anonymous": false,
      "inputs": [
        {
          "indexed": true,
          "internalType": "address",
          "name": "previousOwner",
          "type": "address"
        },
        {
          "indexed": true,
          "internalType": "address",
          "name": "newOwner",
          "type": "address"
        }
      ],
      "name": "OwnershipTransferred",
      "type": "event"
    },
    {
      "anonymous": false,
      "inputs": [
        {
          "indexed": false,
          "internalType": "bytes32",
          "name": "swapId",
          "type": "bytes32"
        },
        {
          "indexed": false,
          "internalType": "address",
          "name": "token",
          "type": "address"
        },
        {
          "indexed": false,
          "internalType": "string",
          "name": "chainId",
          "type": "string"
        }
      ],
      "name": "SwapPairAdded",
      "type": "event"
    },
    {
      "anonymous": false,
      "inputs": [
        {
          "indexed": false,
          "internalType": "address",
          "name": "receiveAddress",
          "type": "address"
        },
        {
          "indexed": false,
          "internalType": "address",
          "name": "token",
          "type": "address"
        },
        {
          "indexed": false,
          "internalType": "uint256",
          "name": "amount",
          "type": "uint256"
        }
      ],
      "name": "TokenSwapEvent",
      "type": "event"
    },
    {
      "inputs": [
        {
          "internalType": "string",
          "name": "receiptId",
          "type": "string"
        }
      ],
      "name": "approve",
      "outputs": [],
      "stateMutability": "nonpayable",
      "type": "function"
    },
    {
      "inputs": [
        {
          "internalType": "string",
          "name": "_receiptId",
          "type": "string"
        },
        {
          "internalType": "uint256",
          "name": "_amount",
          "type": "uint256"
        },
        {
          "internalType": "address",
          "name": "_receiverAddress",
          "type": "address"
        }
      ],
      "name": "computeLeafHash",
      "outputs": [
        {
          "internalType": "bytes32",
          "name": "_leafHash",
          "type": "bytes32"
        }
      ],
      "stateMutability": "pure",
      "type": "function"
    },
    {
      "inputs": [
        {
          "components": [
            {
              "internalType": "address",
              "name": "token",
              "type": "address"
            },
            {
              "internalType": "string",
              "name": "fromChainId",
              "type": "string"
            },
            {
              "internalType": "uint64",
              "name": "originShare",
              "type": "uint64"
            },
            {
              "internalType": "uint64",
              "name": "targetShare",
              "type": "uint64"
            }
          ],
          "internalType": "struct BridgeOutImplementationV1.SwapTargetToken",
          "name": "targetToken",
          "type": "tuple"
        },
        {
          "internalType": "bytes32",
          "name": "regimentId",
          "type": "bytes32"
        }
      ],
      "name": "createSwap",
      "outputs": [],
      "stateMutability": "nonpayable",
      "type": "function"
    },
    {
      "inputs": [
        {
          "internalType": "bytes32",
          "name": "swapId",
          "type": "bytes32"
        },
        {
          "internalType": "address",
          "name": "token",
          "type": "address"
        },
        {
          "internalType": "uint256",
          "name": "amount",
          "type": "uint256"
        }
      ],
      "name": "deposit",
      "outputs": [],
      "stateMutability": "nonpayable",
      "type": "function"
    },
    {
      "inputs": [
        {
          "internalType": "bytes32",
          "name": "swapId",
          "type": "bytes32"
        }
      ],
      "name": "getDepositAmount",
      "outputs": [
        {
          "internalType": "uint256",
          "name": "",
          "type": "uint256"
        }
      ],
      "stateMutability": "view",
      "type": "function"
    },
    {
      "inputs": [
        {
          "internalType": "address[]",
          "name": "tokens",
          "type": "address[]"
        },
        {
          "internalType": "string[]",
          "name": "fromChainIds",
          "type": "string[]"
        }
      ],
      "name": "getReceiveReceiptIndex",
      "outputs": [
        {
          "internalType": "uint256[]",
          "name": "",
          "type": "uint256[]"
        }
      ],
      "stateMutability": "view",
      "type": "function"
    },
    {
      "inputs": [
        {
          "internalType": "address",
          "name": "token",
          "type": "address"
        },
        {
          "internalType": "string",
          "name": "fromChainId",
          "type": "string"
        },
        {
          "internalType": "uint256",
          "name": "fromIndex",
          "type": "uint256"
        },
        {
          "internalType": "uint256",
          "name": "endIndex",
          "type": "uint256"
        }
      ],
      "name": "getReceivedReceiptInfos",
      "outputs": [
        {
          "components": [
            {
              "internalType": "address",
              "name": "asset",
              "type": "address"
            },
            {
              "internalType": "address",
              "name": "targetAddress",
              "type": "address"
            },
            {
              "internalType": "uint256",
              "name": "amount",
              "type": "uint256"
            },
            {
              "internalType": "uint256",
              "name": "blockHeight",
              "type": "uint256"
            },
            {
              "internalType": "uint256",
              "name": "blockTime",
              "type": "uint256"
            },
            {
              "internalType": "string",
              "name": "fromChainId",
              "type": "string"
            },
            {
              "internalType": "string",
              "name": "receiptId",
              "type": "string"
            }
          ],
          "internalType": "struct BridgeOutImplementationV1.ReceivedReceipt[]",
          "name": "_receipts",
          "type": "tuple[]"
        }
      ],
      "stateMutability": "view",
      "type": "function"
    },
    {
      "inputs": [
        {
          "internalType": "address",
          "name": "token",
          "type": "address"
        },
        {
          "internalType": "string",
          "name": "fromChainId",
          "type": "string"
        }
      ],
      "name": "getSwapId",
      "outputs": [
        {
          "internalType": "bytes32",
          "name": "",
          "type": "bytes32"
        }
      ],
      "stateMutability": "view",
      "type": "function"
    },
    {
      "inputs": [
        {
          "internalType": "bytes32",
          "name": "swapId",
          "type": "bytes32"
        }
      ],
      "name": "getSwapInfo",
      "outputs": [
        {
          "internalType": "string",
          "name": "fromChainId",
          "type": "string"
        },
        {
          "internalType": "bytes32",
          "name": "regimentId",
          "type": "bytes32"
        },
        {
          "internalType": "bytes32",
          "name": "spaceId",
          "type": "bytes32"
        },
        {
          "internalType": "address",
          "name": "token",
          "type": "address"
        }
      ],
      "stateMutability": "view",
      "type": "function"
    },
    {
      "inputs": [
        {
          "internalType": "address",
          "name": "_merkleTree",
          "type": "address"
        },
        {
          "internalType": "address",
          "name": "_regiment",
          "type": "address"
        },
        {
          "internalType": "address",
          "name": "_bridgeIn",
          "type": "address"
        }
      ],
      "name": "initialize",
      "outputs": [],
      "stateMutability": "nonpayable",
      "type": "function"
    },
    {
      "inputs": [
        {
          "internalType": "bytes32",
          "name": "receiptHash",
          "type": "bytes32"
        }
      ],
      "name": "isReceiptRecorded",
      "outputs": [
        {
          "internalType": "bool",
          "name": "",
          "type": "bool"
        }
      ],
      "stateMutability": "view",
      "type": "function"
    },
    {
      "inputs": [
        {
          "internalType": "bytes32",
          "name": "spaceId",
          "type": "bytes32"
        },
        {
          "internalType": "string",
          "name": "receiptId",
          "type": "string"
        },
        {
          "internalType": "uint256",
          "name": "amount",
          "type": "uint256"
        },
        {
          "internalType": "address",
          "name": "receiverAddress",
          "type": "address"
        }
      ],
      "name": "merkleTreeVerify",
      "outputs": [
        {
          "internalType": "bytes32",
          "name": "",
          "type": "bytes32"
        }
      ],
      "stateMutability": "view",
      "type": "function"
    },
    {
      "inputs": [],
      "name": "owner",
      "outputs": [
        {
          "internalType": "address",
          "name": "",
          "type": "address"
        }
      ],
      "stateMutability": "view",
      "type": "function"
    },
    {
      "inputs": [],
      "name": "pause",
      "outputs": [],
      "stateMutability": "nonpayable",
      "type": "function"
    },
    {
      "inputs": [],
      "name": "renounceOwnership",
      "outputs": [],
      "stateMutability": "nonpayable",
      "type": "function"
    },
    {
      "inputs": [],
      "name": "restart",
      "outputs": [],
      "stateMutability": "nonpayable",
      "type": "function"
    },
    {
      "inputs": [
        {
          "internalType": "uint256",
          "name": "_defaultMerkleTreeDepth",
          "type": "uint256"
        }
      ],
      "name": "setDefaultMerkleTreeDepth",
      "outputs": [],
      "stateMutability": "nonpayable",
      "type": "function"
    },
    {
      "inputs": [
        {
          "internalType": "uint256",
          "name": "_newNodeCount",
          "type": "uint256"
        }
      ],
      "name": "setDefaultNodesCount",
      "outputs": [],
      "stateMutability": "nonpayable",
      "type": "function"
    },
    {
      "inputs": [
        {
          "internalType": "address[]",
          "name": "tokens",
          "type": "address[]"
        },
        {
          "internalType": "uint256[]",
          "name": "limits",
          "type": "uint256[]"
        }
      ],
      "name": "setLimits",
      "outputs": [],
      "stateMutability": "nonpayable",
      "type": "function"
    },
    {
      "inputs": [
        {
          "internalType": "bytes32",
          "name": "swapId",
          "type": "bytes32"
        },
        {
          "internalType": "string",
          "name": "receiptId",
          "type": "string"
        },
        {
          "internalType": "uint256",
          "name": "amount",
          "type": "uint256"
        },
        {
          "internalType": "address",
          "name": "receiverAddress",
          "type": "address"
        }
      ],
      "name": "swapToken",
      "outputs": [],
      "stateMutability": "nonpayable",
      "type": "function"
    },
    {
      "inputs": [
        {
          "internalType": "address",
          "name": "newOwner",
          "type": "address"
        }
      ],
      "name": "transferOwnership",
      "outputs": [],
      "stateMutability": "nonpayable",
      "type": "function"
    },
    {
      "inputs": [
        {
          "internalType": "bytes32",
          "name": "swapHashId",
          "type": "bytes32"
        },
        {
          "internalType": "bytes",
          "name": "_report",
          "type": "bytes"
        },
        {
          "internalType": "bytes32[]",
          "name": "_rs",
          "type": "bytes32[]"
        },
        {
          "internalType": "bytes32[]",
          "name": "_ss",
          "type": "bytes32[]"
        },
        {
          "internalType": "bytes32",
          "name": "_rawVs",
          "type": "bytes32"
        }
      ],
      "name": "transmit",
      "outputs": [],
      "stateMutability": "nonpayable",
      "type": "function"
    },
    {
      "inputs": [
        {
          "internalType": "bytes32",
          "name": "swapId",
          "type": "bytes32"
        },
        {
          "internalType": "address",
          "name": "token",
          "type": "address"
        },
        {
          "internalType": "uint256",
          "name": "amount",
          "type": "uint256"
        }
      ],
      "name": "withdraw",
      "outputs": [],
      "stateMutability": "nonpayable",
      "type": "function"
    }
  ],
  "bytecode": "0x6080604052600a60055560056006553480156200001b57600080fd5b506200003c620000306200004260201b60201c565b6200004a60201b60201c565b6200010e565b600033905090565b60008060009054906101000a900473ffffffffffffffffffffffffffffffffffffffff169050816000806101000a81548173ffffffffffffffffffffffffffffffffffffffff021916908373ffffffffffffffffffffffffffffffffffffffff1602179055508173ffffffffffffffffffffffffffffffffffffffff168173ffffffffffffffffffffffffffffffffffffffff167f8be0079c531659141344cd1fd0a4f28419497f9722a3daafe3b4186f6b6457e060405160405180910390a35050565b615d9e806200011e6000396000f3fe608060405234801561001057600080fd5b506004361061014d5760003560e01c806371d0c5ca116100c3578063b33ff4501161007c578063b33ff45014610375578063b67b7163146103a5578063c0c53b8b146103c1578063cb2b48a5146103dd578063d954863c1461040d578063f2fde38b146104295761014d565b806371d0c5ca146102b55780638456cb59146102e557806388cc0b2a146102ef5780638a0bb6f91461030b5780638da5cb5b1461033b578063a6fb97d1146103595761014d565b80632d0fc6b4116101155780632d0fc6b4146101e05780633f19efbe146102135780634c038c451461024357806362e385761461027357806368591baa1461028f578063715018a6146102ab5761014d565b806303b1ccdb146101525780630dd59d451461016e578063166d87521461018a5780631ef3755d146101a65780632c3daef6146101b0575b600080fd5b61016c60048036038101906101679190613538565b610445565b005b610188600480360381019061018391906135e4565b610d70565b005b6101a4600480360381019061019f9190613640565b611236565b005b6101ae611248565b005b6101ca60048036038101906101c5919061366d565b61134b565b6040516101d791906136a9565b60405180910390f35b6101fa60048036038101906101f5919061366d565b611368565b60405161020a949392919061377b565b60405180910390f35b61022d6004803603810190610228919061395b565b611488565b60405161023a9190613a95565b60405180910390f35b61025d6004803603810190610258919061366d565b61160c565b60405161026a9190613ad2565b60405180910390f35b61028d60048036038101906102889190613bb0565b61162e565b005b6102a960048036038101906102a49190613cd4565b6116d2565b005b6102b3611c99565b005b6102cf60048036038101906102ca9190613db0565b611cad565b6040516102dc9190613e10565b60405180910390f35b6102ed611d1e565b005b61030960048036038101906103049190613640565b611d93565b005b61032560048036038101906103209190613e2b565b611da5565b6040516103329190614071565b60405180910390f35b61034361214b565b6040516103509190614093565b60405180910390f35b610373600480360381019061036e91906140ae565b612174565b005b61038f600480360381019061038a9190613538565b612330565b60405161039c9190613e10565b60405180910390f35b6103bf60048036038101906103ba9190614101565b612625565b005b6103db60048036038101906103d6919061414e565b61266a565b005b6103f760048036038101906103f29190614256565b6127cb565b6040516104049190613e10565b60405180910390f35b610427600480360381019061042291906140ae565b6129a4565b005b610443600480360381019061043e91906142c5565b612a0a565b005b601160009054906101000a900460ff1615610495576040517f08c379a000000000000000000000000000000000000000000000000000000000815260040161048c9061433e565b60405180910390fd5b8073ffffffffffffffffffffffffffffffffffffffff163373ffffffffffffffffffffffffffffffffffffffff1614610503576040517f08c379a00000000000000000000000000000000000000000000000000000000081526004016104fa906143aa565b60405180910390fd5b6000600960008781526020019081526020016000206002015490506000801b811415610564576040517f08c379a000000000000000000000000000000000000000000000000000000000815260040161055b90614416565b60405180910390fd5b600083116105a7576040517f08c379a000000000000000000000000000000000000000000000000000000000815260040161059e90614482565b60405180910390fd5b600060096000888152602001908152602001600020905060006105cd8388888888612330565b90506000600b60008381526020019081526020016000209050600073ffffffffffffffffffffffffffffffffffffffff168160000160009054906101000a900473ffffffffffffffffffffffffffffffffffffffff1673ffffffffffffffffffffffffffffffffffffffff1614610679576040517f08c379a0000000000000000000000000000000000000000000000000000000008152600401610670906144ee565b60405180910390fd5b848160000160006101000a81548173ffffffffffffffffffffffffffffffffffffffff021916908373ffffffffffffffffffffffffffffffffffffffff160217905550600061072d8460030160020160009054906101000a900467ffffffffffffffff1667ffffffffffffffff1661071f8660030160020160089054906101000a900467ffffffffffffffff1667ffffffffffffffff168a612a8e90919063ffffffff16565b612aa490919063ffffffff16565b9050601060008b815260200190815260200160002054811115610785576040517f08c379a000000000000000000000000000000000000000000000000000000000815260040161077c9061455a565b60405180910390fd5b600f60008560030160000160009054906101000a900473ffffffffffffffffffffffffffffffffffffffff1673ffffffffffffffffffffffffffffffffffffffff1673ffffffffffffffffffffffffffffffffffffffff16815260200190815260200160002054811061086057600e89896040516108049291906145aa565b908152602001604051809103902060009054906101000a900460ff1661085f576040517f08c379a00000000000000000000000000000000000000000000000000000000081526004016108569061460f565b60405180910390fd5b5b80601060008c81526020019081526020016000206000828254610883919061465e565b925050819055508360030160000160009054906101000a900473ffffffffffffffffffffffffffffffffffffffff1673ffffffffffffffffffffffffffffffffffffffff1663a9059cbb87836040518363ffffffff1660e01b81526004016108ec929190614692565b602060405180830381600087803b15801561090657600080fd5b505af115801561091a573d6000803e3d6000fd5b505050506040513d601f19601f8201168201806040525081019061093e91906146e7565b50808260020160008660030160000160009054906101000a900473ffffffffffffffffffffffffffffffffffffffff1673ffffffffffffffffffffffffffffffffffffffff1673ffffffffffffffffffffffffffffffffffffffff168152602001908152602001600020819055507fb0c1e4d18ea737b756410ab0296768c15a87c12eeb368f360ecc5be61a11b4db868560030160000160009054906101000a900473ffffffffffffffffffffffffffffffffffffffff1683604051610a0693929190614714565b60405180910390a16000610ad08560030160000160009054906101000a900473ffffffffffffffffffffffffffffffffffffffff16866003016001018054610a4d9061477a565b80601f0160208091040260200160405190810160405280929190818152602001828054610a799061477a565b8015610ac65780601f10610a9b57610100808354040283529160200191610ac6565b820191906000526020600020905b815481529060010190602001808311610aa957829003601f168201915b5050505050612aba565b90506000600d600083815260200190815260200160002060008154610af4906147ac565b91905081905590506040518060e001604052808760030160000160009054906101000a900473ffffffffffffffffffffffffffffffffffffffff1673ffffffffffffffffffffffffffffffffffffffff1681526020018973ffffffffffffffffffffffffffffffffffffffff1681526020018a8152602001438152602001428152602001876003016001018054610b8a9061477a565b80601f0160208091040260200160405190810160405280929190818152602001828054610bb69061477a565b8015610c035780601f10610bd857610100808354040283529160200191610c03565b820191906000526020600020905b815481529060010190602001808311610be657829003601f168201915b505050505081526020018c8c8080601f016020809104026020016040519081016040528093929190818152602001838380828437600081840152601f19601f82011690508083019250505050505050815250600c6000848152602001908152602001600020600083815260200190815260200160002060008201518160000160006101000a81548173ffffffffffffffffffffffffffffffffffffffff021916908373ffffffffffffffffffffffffffffffffffffffff16021790555060208201518160010160006101000a81548173ffffffffffffffffffffffffffffffffffffffff021916908373ffffffffffffffffffffffffffffffffffffffff16021790555060408201518160020155606082015181600301556080820151816004015560a0820151816005019080519060200190610d419291906132e9565b5060c0820151816006019080519060200190610d5e9291906132e9565b50905050505050505050505050505050565b600360009054906101000a900473ffffffffffffffffffffffffffffffffffffffff1673ffffffffffffffffffffffffffffffffffffffff16639a96679e82336040518363ffffffff1660e01b8152600401610dcd9291906147f5565b60206040518083038186803b158015610de557600080fd5b505afa158015610df9573d6000803e3d6000fd5b505050506040513d601f19601f82011682018060405250810190610e1d91906146e7565b610e5c576040517f08c379a0000000000000000000000000000000000000000000000000000000008152600401610e53906143aa565b60405180910390fd5b6000610ecc836000016020810190610e7491906142c5565b848060200190610e84919061482d565b8080601f016020809104026020016040519081016040528093929190818152602001838380828437600081840152601f19601f82011690508083019250505050505050612aba565b9050610ee2816007612b3590919063ffffffff16565b15610f22576040517f08c379a0000000000000000000000000000000000000000000000000000000008152600401610f19906148dc565b60405180910390fd5b6000600260009054906101000a900473ffffffffffffffffffffffffffffffffffffffff1673ffffffffffffffffffffffffffffffffffffffff16632a99732a846005546040518363ffffffff1660e01b8152600401610f839291906148fc565b602060405180830381600087803b158015610f9d57600080fd5b505af1158015610fb1573d6000803e3d6000fd5b505050506040513d601f19601f82011682018060405250810190610fd5919061493a565b905060008036604051610fe9929190614997565b60405180910390209050600085604001602081019061100891906149f0565b67ffffffffffffffff1611801561103b5750600085606001602081019061102f91906149f0565b67ffffffffffffffff16115b61107a576040517f08c379a000000000000000000000000000000000000000000000000000000000815260040161107190614a69565b60405180910390fd5b6040518060800160405280828152602001858152602001838152602001866110a190614b27565b8152506009600083815260200190815260200160002060008201518160000155602082015181600101556040820151816002015560608201518160030160008201518160000160006101000a81548173ffffffffffffffffffffffffffffffffffffffff021916908373ffffffffffffffffffffffffffffffffffffffff16021790555060208201518160010190805190602001906111419291906132e9565b5060408201518160020160006101000a81548167ffffffffffffffff021916908367ffffffffffffffff16021790555060608201518160020160086101000a81548167ffffffffffffffff021916908367ffffffffffffffff16021790555050509050506111b9836007612b4c90919063ffffffff16565b5080600a6000858152602001908152602001600020819055507f909c724b9d08d0463115fc7fa6d2c8e51e6eafa867725be497bdb9a53a6cac4f8186600001602081019061120791906142c5565b878060200190611217919061482d565b6040516112279493929190614b67565b60405180910390a15050505050565b61123e612b63565b8060058190555050565b600460009054906101000a900473ffffffffffffffffffffffffffffffffffffffff1673ffffffffffffffffffffffffffffffffffffffff163373ffffffffffffffffffffffffffffffffffffffff16146112d8576040517f08c379a00000000000000000000000000000000000000000000000000000000081526004016112cf90614bf3565b60405180910390fd5b60011515601160009054906101000a900460ff1615151461132e576040517f08c379a000000000000000000000000000000000000000000000000000000000815260040161132590614c5f565b60405180910390fd5b6000601160006101000a81548160ff021916908315150217905550565b600060106000838152602001908152602001600020549050919050565b606060008060006009600086815260200190815260200160002060030160010180546113939061477a565b80601f01602080910402602001604051908101604052809291908181526020018280546113bf9061477a565b801561140c5780601f106113e15761010080835404028352916020019161140c565b820191906000526020600020905b8154815290600101906020018083116113ef57829003601f168201915b5050505050935060096000868152602001908152602001600020600101549250600960008681526020019081526020016000206002015491506009600086815260200190815260200160002060030160000160009054906101000a900473ffffffffffffffffffffffffffffffffffffffff1690509193509193565b6060828290508451146114d0576040517f08c379a00000000000000000000000000000000000000000000000000000000081526004016114c790614cf1565b60405180910390fd5b6000845167ffffffffffffffff8111156114ed576114ec6137c7565b5b60405190808252806020026020018201604052801561151b5781602001602082028036833780820191505090505b50905060005b85518110156116005760006115b787838151811061154257611541614d11565b5b602002602001015187878581811061155d5761155c614d11565b5b905060200281019061156f919061482d565b8080601f016020809104026020016040519081016040528093929190818152602001838380828437600081840152601f19601f82011690508083019250505050505050612aba565b9050600d6000828152602001908152602001600020548383815181106115e0576115df614d11565b5b6020026020010181815250505080806115f8906147ac565b915050611521565b50809150509392505050565b600080600b600084815260200190815260200160002060010154119050919050565b611636612b63565b60005b82518110156116cd5781818151811061165557611654614d11565b5b6020026020010151600f600085848151811061167457611673614d11565b5b602002602001015173ffffffffffffffffffffffffffffffffffffffff1673ffffffffffffffffffffffffffffffffffffffff1681526020019081526020016000208190555080806116c5906147ac565b915050611639565b505050565b6000600960008a81526020019081526020016000209050600360009054906101000a900473ffffffffffffffffffffffffffffffffffffffff1673ffffffffffffffffffffffffffffffffffffffff166323c849858260010154336040518363ffffffff1660e01b815260040161174a9291906147f5565b60206040518083038186803b15801561176257600080fd5b505afa158015611776573d6000803e3d6000fd5b505050506040513d601f19601f8201168201806040525081019061179a91906146e7565b6117d9576040517f08c379a00000000000000000000000000000000000000000000000000000000081526004016117d090614d8c565b60405180910390fd5b600088886040516117eb929190614997565b6040518091039020905060008787905067ffffffffffffffff811115611814576118136137c7565b5b6040519080825280602002602001820160405280156118425781602001602082028036833780820191505090505b50905060005b8888905081101561195957600183601b87846020811061186b5761186a614d11565b5b1a60f81b60f81c61187c9190614db9565b8b8b8581811061188f5761188e614d11565b5b905060200201358a8a868181106118a9576118a8614d11565b5b90506020020135604051600081526020016040526040516118cd9493929190614dff565b6020604051602081039080840390855afa1580156118ef573d6000803e3d6000fd5b5050506020604051035182828151811061190c5761190b614d11565b5b602002602001019073ffffffffffffffffffffffffffffffffffffffff16908173ffffffffffffffffffffffffffffffffffffffff16815250508080611951906147ac565b915050611848565b50600360009054906101000a900473ffffffffffffffffffffffffffffffffffffffff1673ffffffffffffffffffffffffffffffffffffffff16631a3644668460010154836040518363ffffffff1660e01b81526004016119bb929190614ef3565b60206040518083038186803b1580156119d357600080fd5b505afa1580156119e7573d6000803e3d6000fd5b505050506040513d601f19601f82011682018060405250810190611a0b91906146e7565b611a4a576040517f08c379a0000000000000000000000000000000000000000000000000000000008152600401611a4190614f6f565b60405180910390fd5b600080611a9a8c8c8080601f016020809104026020016040519081016040528093929190818152602001838380828437600081840152601f19601f82011690508083019250505050505050612be1565b915091506000600167ffffffffffffffff811115611abb57611aba6137c7565b5b604051908082528060200260200182016040528015611ae95781602001602082028036833780820191505090505b5090508181600081518110611b0157611b00614d11565b5b6020026020010181815250506000600b60008481526020019081526020016000206001015414611b66576040517f08c379a0000000000000000000000000000000000000000000000000000000008152600401611b5d90614fdb565b60405180910390fd5b6000600260009054906101000a900473ffffffffffffffffffffffffffffffffffffffff1673ffffffffffffffffffffffffffffffffffffffff16637d9778368860020154846040518363ffffffff1660e01b8152600401611bc99291906150b9565b602060405180830381600087803b158015611be357600080fd5b505af1158015611bf7573d6000803e3d6000fd5b505050506040513d601f19601f82011682018060405250810190611c1b91906150fe565b9050611c31600182612c0c90919063ffffffff16565b600b6000858152602001908152602001600020600101819055507f6319bf84e3d2c97dd1991c07818c14950ceb6f48ce6d85f063be3c60905ea1b98f338686604051611c80949392919061512b565b60405180910390a1505050505050505050505050505050565b611ca1612b63565b611cab6000612c22565b565b600080611cfe8585858080601f016020809104026020016040519081016040528093929190818152602001838380828437600081840152601f19601f82011690508083019250505050505050612aba565b9050600a6000828152602001908152602001600020549150509392505050565b611d26612b63565b601160009054906101000a900460ff1615611d76576040517f08c379a0000000000000000000000000000000000000000000000000000000008152600401611d6d906151bc565b60405180910390fd5b6001601160006101000a81548160ff021916908315150217905550565b611d9b612b63565b8060068190555050565b60606000611df78787878080601f016020809104026020016040519081016040528093929190818152602001838380828437600081840152601f19601f82011690508083019250505050505050612aba565b9050600d6000828152602001908152602001600020548311158015611e1c5750600084115b611e5b576040517f08c379a0000000000000000000000000000000000000000000000000000000008152600401611e5290615228565b60405180910390fd5b6000611e836001611e758787612ce690919063ffffffff16565b612c0c90919063ffffffff16565b90508067ffffffffffffffff811115611e9f57611e9e6137c7565b5b604051908082528060200260200182016040528015611ed857816020015b611ec561336f565b815260200190600190039081611ebd5790505b50925060005b8181101561213f57600c600084815260200190815260200160002060008783611f079190615248565b81526020019081526020016000206040518060e00160405290816000820160009054906101000a900473ffffffffffffffffffffffffffffffffffffffff1673ffffffffffffffffffffffffffffffffffffffff1673ffffffffffffffffffffffffffffffffffffffff1681526020016001820160009054906101000a900473ffffffffffffffffffffffffffffffffffffffff1673ffffffffffffffffffffffffffffffffffffffff1673ffffffffffffffffffffffffffffffffffffffff168152602001600282015481526020016003820154815260200160048201548152602001600582018054611ffa9061477a565b80601f01602080910402602001604051908101604052809291908181526020018280546120269061477a565b80156120735780601f1061204857610100808354040283529160200191612073565b820191906000526020600020905b81548152906001019060200180831161205657829003601f168201915b5050505050815260200160068201805461208c9061477a565b80601f01602080910402602001604051908101604052809291908181526020018280546120b89061477a565b80156121055780601f106120da57610100808354040283529160200191612105565b820191906000526020600020905b8154815290600101906020018083116120e857829003601f168201915b50505050508152505084828151811061212157612120614d11565b5b60200260200101819052508080612137906147ac565b915050611ede565b50505095945050505050565b60008060009054906101000a900473ffffffffffffffffffffffffffffffffffffffff16905090565b600360009054906101000a900473ffffffffffffffffffffffffffffffffffffffff1673ffffffffffffffffffffffffffffffffffffffff16639a96679e6009600086815260200190815260200160002060010154336040518363ffffffff1660e01b81526004016121e79291906147f5565b60206040518083038186803b1580156121ff57600080fd5b505afa158015612213573d6000803e3d6000fd5b505050506040513d601f19601f8201168201806040525081019061223791906146e7565b612276576040517f08c379a000000000000000000000000000000000000000000000000000000000815260040161226d906143aa565b60405180910390fd5b6122808284612cfc565b80601060008581526020019081526020016000205410156122d6576040517f08c379a00000000000000000000000000000000000000000000000000000000081526004016122cd906152ea565b60405180910390fd5b61230133828473ffffffffffffffffffffffffffffffffffffffff16612eaa9092919063ffffffff16565b80601060008581526020019081526020016000206000828254612324919061465e565b92505081905550505050565b6000606080600061238688888080601f016020809104026020016040519081016040528093929190818152602001838380828437600081840152601f19601f8201169050808301925050505050505087876127cb565b905060006123b46001600b600085815260200190815260200160002060010154612ce690919063ffffffff16565b9050600260009054906101000a900473ffffffffffffffffffffffffffffffffffffffff1673ffffffffffffffffffffffffffffffffffffffff16631b32d71a8b836040518363ffffffff1660e01b81526004016124139291906148fc565b60006040518083038186803b15801561242b57600080fd5b505afa15801561243f573d6000803e3d6000fd5b505050506040513d6000823e3d601f19601f820116820180604052508101906124689190615490565b909192509091508094508195505050600260009054906101000a900473ffffffffffffffffffffffffffffffffffffffff1673ffffffffffffffffffffffffffffffffffffffff16631669b10e8b600260009054906101000a900473ffffffffffffffffffffffffffffffffffffffff1673ffffffffffffffffffffffffffffffffffffffff1663fd2973ca8e866040518363ffffffff1660e01b81526004016125139291906148fc565b60206040518083038186803b15801561252b57600080fd5b505afa15801561253f573d6000803e3d6000fd5b505050506040513d601f19601f8201168201806040525081019061256391906150fe565b8588886040518663ffffffff1660e01b81526004016125869594939291906155ed565b60206040518083038186803b15801561259e57600080fd5b505afa1580156125b2573d6000803e3d6000fd5b505050506040513d601f19601f820116820180604052508101906125d691906146e7565b612615576040517f08c379a000000000000000000000000000000000000000000000000000000000815260040161260c9061569a565b60405180910390fd5b8194505050505095945050505050565b61262d612b63565b6001600e83836040516126419291906145aa565b908152602001604051809103902060006101000a81548160ff0219169083151502179055505050565b612672612b63565b600073ffffffffffffffffffffffffffffffffffffffff16600260009054906101000a900473ffffffffffffffffffffffffffffffffffffffff1673ffffffffffffffffffffffffffffffffffffffff1614612703576040517f08c379a00000000000000000000000000000000000000000000000000000000081526004016126fa90615706565b60405180910390fd5b82600260006101000a81548173ffffffffffffffffffffffffffffffffffffffff021916908373ffffffffffffffffffffffffffffffffffffffff16021790555081600360006101000a81548173ffffffffffffffffffffffffffffffffffffffff021916908373ffffffffffffffffffffffffffffffffffffffff16021790555080600460006101000a81548173ffffffffffffffffffffffffffffffffffffffff021916908373ffffffffffffffffffffffffffffffffffffffff160217905550505050565b6000806002856040516020016127e19190615757565b6040516020818303038152906040526040516127fd91906157aa565b602060405180830381855afa15801561281a573d6000803e3d6000fd5b5050506040513d601f19601f8201168201806040525081019061283d919061493a565b9050600060028560405160200161285491906157e2565b60405160208183030381529060405260405161287091906157aa565b602060405180830381855afa15801561288d573d6000803e3d6000fd5b5050506040513d601f19601f820116820180604052508101906128b0919061493a565b905060006002856040516020016128c79190615845565b6040516020818303038152906040526040516128e391906157aa565b602060405180830381855afa158015612900573d6000803e3d6000fd5b5050506040513d601f19601f82011682018060405250810190612923919061493a565b9050600283838360405160200161293c93929190615860565b60405160208183030381529060405260405161295891906157aa565b602060405180830381855afa158015612975573d6000803e3d6000fd5b5050506040513d601f19601f82011682018060405250810190612998919061493a565b93505050509392505050565b6129ae8284612cfc565b6129db3330838573ffffffffffffffffffffffffffffffffffffffff16612f30909392919063ffffffff16565b806010600085815260200190815260200160002060008282546129fe9190615248565b92505081905550505050565b612a12612b63565b600073ffffffffffffffffffffffffffffffffffffffff168173ffffffffffffffffffffffffffffffffffffffff161415612a82576040517f08c379a0000000000000000000000000000000000000000000000000000000008152600401612a7990615909565b60405180910390fd5b612a8b81612c22565b50565b60008183612a9c9190615929565b905092915050565b60008183612ab291906159b2565b905092915050565b600060028383604051602001612ad19291906159e3565b604051602081830303815290604052604051612aed91906157aa565b602060405180830381855afa158015612b0a573d6000803e3d6000fd5b5050506040513d601f19601f82011682018060405250810190612b2d919061493a565b905092915050565b6000612b448360000183612fb9565b905092915050565b6000612b5b8360000183612fdc565b905092915050565b612b6b61304c565b73ffffffffffffffffffffffffffffffffffffffff16612b8961214b565b73ffffffffffffffffffffffffffffffffffffffff1614612bdf576040517f08c379a0000000000000000000000000000000000000000000000000000000008152600401612bd690615a57565b60405180910390fd5b565b60008082806020019051810190612bf89190615a77565b909192509091508092508193505050915091565b60008183612c1a9190615248565b905092915050565b60008060009054906101000a900473ffffffffffffffffffffffffffffffffffffffff169050816000806101000a81548173ffffffffffffffffffffffffffffffffffffffff021916908373ffffffffffffffffffffffffffffffffffffffff1602179055508173ffffffffffffffffffffffffffffffffffffffff168173ffffffffffffffffffffffffffffffffffffffff167f8be0079c531659141344cd1fd0a4f28419497f9722a3daafe3b4186f6b6457e060405160405180910390a35050565b60008183612cf4919061465e565b905092915050565b6000612da983600960008581526020019081526020016000206003016001018054612d269061477a565b80601f0160208091040260200160405190810160405280929190818152602001828054612d529061477a565b8015612d9f5780601f10612d7457610100808354040283529160200191612d9f565b820191906000526020600020905b815481529060010190602001808311612d8257829003601f168201915b5050505050612aba565b9050612dbf816007612b3590919063ffffffff16565b612dfe576040517f08c379a0000000000000000000000000000000000000000000000000000000008152600401612df590615b2a565b60405180910390fd5b8273ffffffffffffffffffffffffffffffffffffffff166009600084815260200190815260200160002060030160000160009054906101000a900473ffffffffffffffffffffffffffffffffffffffff1673ffffffffffffffffffffffffffffffffffffffff1614612ea5576040517f08c379a0000000000000000000000000000000000000000000000000000000008152600401612e9c90615b96565b60405180910390fd5b505050565b612f2b8363a9059cbb60e01b8484604051602401612ec9929190614692565b604051602081830303815290604052907bffffffffffffffffffffffffffffffffffffffffffffffffffffffff19166020820180517bffffffffffffffffffffffffffffffffffffffffffffffffffffffff8381831617835250505050613054565b505050565b612fb3846323b872dd60e01b858585604051602401612f5193929190614714565b604051602081830303815290604052907bffffffffffffffffffffffffffffffffffffffffffffffffffffffff19166020820180517bffffffffffffffffffffffffffffffffffffffffffffffffffffffff8381831617835250505050613054565b50505050565b600080836001016000848152602001908152602001600020541415905092915050565b6000612fe88383612fb9565b613041578260000182908060018154018082558091505060019003906000526020600020016000909190919091505582600001805490508360010160008481526020019081526020016000208190555060019050613046565b600090505b92915050565b600033905090565b60006130b6826040518060400160405280602081526020017f5361666545524332303a206c6f772d6c6576656c2063616c6c206661696c65648152508573ffffffffffffffffffffffffffffffffffffffff1661311b9092919063ffffffff16565b905060008151111561311657808060200190518101906130d691906146e7565b613115576040517f08c379a000000000000000000000000000000000000000000000000000000000815260040161310c90615c28565b60405180910390fd5b5b505050565b606061312a8484600085613133565b90509392505050565b606082471015613178576040517f08c379a000000000000000000000000000000000000000000000000000000000815260040161316f90615cba565b60405180910390fd5b6000808673ffffffffffffffffffffffffffffffffffffffff1685876040516131a191906157aa565b60006040518083038185875af1925050503d80600081146131de576040519150601f19603f3d011682016040523d82523d6000602084013e6131e3565b606091505b50915091506131f487838387613200565b92505050949350505050565b606083156132635760008351141561325b5761321b85613276565b61325a576040517f08c379a000000000000000000000000000000000000000000000000000000000815260040161325190615d26565b60405180910390fd5b5b82905061326e565b61326d8383613299565b5b949350505050565b6000808273ffffffffffffffffffffffffffffffffffffffff163b119050919050565b6000825111156132ac5781518083602001fd5b806040517f08c379a00000000000000000000000000000000000000000000000000000000081526004016132e09190615d46565b60405180910390fd5b8280546132f59061477a565b90600052602060002090601f016020900481019282613317576000855561335e565b82601f1061333057805160ff191683800117855561335e565b8280016001018555821561335e579182015b8281111561335d578251825591602001919060010190613342565b5b50905061336b91906133d8565b5090565b6040518060e00160405280600073ffffffffffffffffffffffffffffffffffffffff168152602001600073ffffffffffffffffffffffffffffffffffffffff16815260200160008152602001600081526020016000815260200160608152602001606081525090565b5b808211156133f15760008160009055506001016133d9565b5090565b6000604051905090565b600080fd5b600080fd5b6000819050919050565b61341c81613409565b811461342757600080fd5b50565b60008135905061343981613413565b92915050565b600080fd5b600080fd5b600080fd5b60008083601f8401126134645761346361343f565b5b8235905067ffffffffffffffff81111561348157613480613444565b5b60208301915083600182028301111561349d5761349c613449565b5b9250929050565b6000819050919050565b6134b7816134a4565b81146134c257600080fd5b50565b6000813590506134d4816134ae565b92915050565b600073ffffffffffffffffffffffffffffffffffffffff82169050919050565b6000613505826134da565b9050919050565b613515816134fa565b811461352057600080fd5b50565b6000813590506135328161350c565b92915050565b600080600080600060808688031215613554576135536133ff565b5b60006135628882890161342a565b955050602086013567ffffffffffffffff81111561358357613582613404565b5b61358f8882890161344e565b945094505060406135a2888289016134c5565b92505060606135b388828901613523565b9150509295509295909350565b600080fd5b6000608082840312156135db576135da6135c0565b5b81905092915050565b600080604083850312156135fb576135fa6133ff565b5b600083013567ffffffffffffffff81111561361957613618613404565b5b613625858286016135c5565b92505060206136368582860161342a565b9150509250929050565b600060208284031215613656576136556133ff565b5b6000613664848285016134c5565b91505092915050565b600060208284031215613683576136826133ff565b5b60006136918482850161342a565b91505092915050565b6136a3816134a4565b82525050565b60006020820190506136be600083018461369a565b92915050565b600081519050919050565b600082825260208201905092915050565b60005b838110156136fe5780820151818401526020810190506136e3565b8381111561370d576000848401525b50505050565b6000601f19601f8301169050919050565b600061372f826136c4565b61373981856136cf565b93506137498185602086016136e0565b61375281613713565b840191505092915050565b61376681613409565b82525050565b613775816134fa565b82525050565b600060808201905081810360008301526137958187613724565b90506137a4602083018661375d565b6137b1604083018561375d565b6137be606083018461376c565b95945050505050565b7f4e487b7100000000000000000000000000000000000000000000000000000000600052604160045260246000fd5b6137ff82613713565b810181811067ffffffffffffffff8211171561381e5761381d6137c7565b5b80604052505050565b60006138316133f5565b905061383d82826137f6565b919050565b600067ffffffffffffffff82111561385d5761385c6137c7565b5b602082029050602081019050919050565b600061388161387c84613842565b613827565b905080838252602082019050602084028301858111156138a4576138a3613449565b5b835b818110156138cd57806138b98882613523565b8452602084019350506020810190506138a6565b5050509392505050565b600082601f8301126138ec576138eb61343f565b5b81356138fc84826020860161386e565b91505092915050565b60008083601f84011261391b5761391a61343f565b5b8235905067ffffffffffffffff81111561393857613937613444565b5b60208301915083602082028301111561395457613953613449565b5b9250929050565b600080600060408486031215613974576139736133ff565b5b600084013567ffffffffffffffff81111561399257613991613404565b5b61399e868287016138d7565b935050602084013567ffffffffffffffff8111156139bf576139be613404565b5b6139cb86828701613905565b92509250509250925092565b600081519050919050565b600082825260208201905092915050565b6000819050602082019050919050565b613a0c816134a4565b82525050565b6000613a1e8383613a03565b60208301905092915050565b6000602082019050919050565b6000613a42826139d7565b613a4c81856139e2565b9350613a57836139f3565b8060005b83811015613a88578151613a6f8882613a12565b9750613a7a83613a2a565b925050600181019050613a5b565b5085935050505092915050565b60006020820190508181036000830152613aaf8184613a37565b905092915050565b60008115159050919050565b613acc81613ab7565b82525050565b6000602082019050613ae76000830184613ac3565b92915050565b600067ffffffffffffffff821115613b0857613b076137c7565b5b602082029050602081019050919050565b6000613b2c613b2784613aed565b613827565b90508083825260208201905060208402830185811115613b4f57613b4e613449565b5b835b81811015613b785780613b6488826134c5565b845260208401935050602081019050613b51565b5050509392505050565b600082601f830112613b9757613b9661343f565b5b8135613ba7848260208601613b19565b91505092915050565b60008060408385031215613bc757613bc66133ff565b5b600083013567ffffffffffffffff811115613be557613be4613404565b5b613bf1858286016138d7565b925050602083013567ffffffffffffffff811115613c1257613c11613404565b5b613c1e85828601613b82565b9150509250929050565b60008083601f840112613c3e57613c3d61343f565b5b8235905067ffffffffffffffff811115613c5b57613c5a613444565b5b602083019150836001820283011115613c7757613c76613449565b5b9250929050565b60008083601f840112613c9457613c9361343f565b5b8235905067ffffffffffffffff811115613cb157613cb0613444565b5b602083019150836020820283011115613ccd57613ccc613449565b5b9250929050565b60008060008060008060008060a0898b031215613cf457613cf36133ff565b5b6000613d028b828c0161342a565b985050602089013567ffffffffffffffff811115613d2357613d22613404565b5b613d2f8b828c01613c28565b9750975050604089013567ffffffffffffffff811115613d5257613d51613404565b5b613d5e8b828c01613c7e565b9550955050606089013567ffffffffffffffff811115613d8157613d80613404565b5b613d8d8b828c01613c7e565b93509350506080613da08b828c0161342a565b9150509295985092959890939650565b600080600060408486031215613dc957613dc86133ff565b5b6000613dd786828701613523565b935050602084013567ffffffffffffffff811115613df857613df7613404565b5b613e048682870161344e565b92509250509250925092565b6000602082019050613e25600083018461375d565b92915050565b600080600080600060808688031215613e4757613e466133ff565b5b6000613e5588828901613523565b955050602086013567ffffffffffffffff811115613e7657613e75613404565b5b613e828882890161344e565b94509450506040613e95888289016134c5565b9250506060613ea6888289016134c5565b9150509295509295909350565b600081519050919050565b600082825260208201905092915050565b6000819050602082019050919050565b613ee8816134fa565b82525050565b600082825260208201905092915050565b6000613f0a826136c4565b613f148185613eee565b9350613f248185602086016136e0565b613f2d81613713565b840191505092915050565b600060e083016000830151613f506000860182613edf565b506020830151613f636020860182613edf565b506040830151613f766040860182613a03565b506060830151613f896060860182613a03565b506080830151613f9c6080860182613a03565b5060a083015184820360a0860152613fb48282613eff565b91505060c083015184820360c0860152613fce8282613eff565b9150508091505092915050565b6000613fe78383613f38565b905092915050565b6000602082019050919050565b600061400782613eb3565b6140118185613ebe565b93508360208202850161402385613ecf565b8060005b8581101561405f57848403895281516140408582613fdb565b945061404b83613fef565b925060208a01995050600181019050614027565b50829750879550505050505092915050565b6000602082019050818103600083015261408b8184613ffc565b905092915050565b60006020820190506140a8600083018461376c565b92915050565b6000806000606084860312156140c7576140c66133ff565b5b60006140d58682870161342a565b93505060206140e686828701613523565b92505060406140f7868287016134c5565b9150509250925092565b60008060208385031215614118576141176133ff565b5b600083013567ffffffffffffffff81111561413657614135613404565b5b6141428582860161344e565b92509250509250929050565b600080600060608486031215614167576141666133ff565b5b600061417586828701613523565b935050602061418686828701613523565b925050604061419786828701613523565b9150509250925092565b600080fd5b600067ffffffffffffffff8211156141c1576141c06137c7565b5b6141ca82613713565b9050602081019050919050565b82818337600083830152505050565b60006141f96141f4846141a6565b613827565b905082815260208101848484011115614215576142146141a1565b5b6142208482856141d7565b509392505050565b600082601f83011261423d5761423c61343f565b5b813561424d8482602086016141e6565b91505092915050565b60008060006060848603121561426f5761426e6133ff565b5b600084013567ffffffffffffffff81111561428d5761428c613404565b5b61429986828701614228565b93505060206142aa868287016134c5565b92505060406142bb86828701613523565b9150509250925092565b6000602082840312156142db576142da6133ff565b5b60006142e984828501613523565b91505092915050565b7f7061757365640000000000000000000000000000000000000000000000000000600082015250565b60006143286006836136cf565b9150614333826142f2565b602082019050919050565b600060208201905081810360008301526143578161431b565b9050919050565b7f6e6f207065726d697373696f6e00000000000000000000000000000000000000600082015250565b6000614394600d836136cf565b915061439f8261435e565b602082019050919050565b600060208201905081810360008301526143c381614387565b9050919050565b7f737761702070616972206e6f7420666f756e6400000000000000000000000000600082015250565b60006144006013836136cf565b915061440b826143ca565b602082019050919050565b6000602082019050818103600083015261442f816143f3565b9050919050565b7f696e76616c696420616d6f756e74000000000000000000000000000000000000600082015250565b600061446c600e836136cf565b915061447782614436565b602082019050919050565b6000602082019050818103600083015261449b8161445f565b9050919050565b7f616c726561647920636c61696d65640000000000000000000000000000000000600082015250565b60006144d8600f836136cf565b91506144e3826144a2565b602082019050919050565b60006020820190508181036000830152614507816144cb565b9050919050565b7f6465706f736974206e6f7420656e6f7567680000000000000000000000000000600082015250565b60006145446012836136cf565b915061454f8261450e565b602082019050919050565b6000602082019050818103600083015261457381614537565b9050919050565b600081905092915050565b6000614591838561457a565b935061459e8385846141d7565b82840190509392505050565b60006145b7828486614585565b91508190509392505050565b7f726563656970742073686f756c6420626520617070726f766564000000000000600082015250565b60006145f9601a836136cf565b9150614604826145c3565b602082019050919050565b60006020820190508181036000830152614628816145ec565b9050919050565b7f4e487b7100000000000000000000000000000000000000000000000000000000600052601160045260246000fd5b6000614669826134a4565b9150614674836134a4565b9250828210156146875761468661462f565b5b828203905092915050565b60006040820190506146a7600083018561376c565b6146b4602083018461369a565b9392505050565b6146c481613ab7565b81146146cf57600080fd5b50565b6000815190506146e1816146bb565b92915050565b6000602082840312156146fd576146fc6133ff565b5b600061470b848285016146d2565b91505092915050565b6000606082019050614729600083018661376c565b614736602083018561376c565b614743604083018461369a565b949350505050565b7f4e487b7100000000000000000000000000000000000000000000000000000000600052602260045260246000fd5b6000600282049050600182168061479257607f821691505b602082108114156147a6576147a561474b565b5b50919050565b60006147b7826134a4565b91507fffffffffffffffffffffffffffffffffffffffffffffffffffffffffffffffff8214156147ea576147e961462f565b5b600182019050919050565b600060408201905061480a600083018561375d565b614817602083018461376c565b9392505050565b600080fd5b600080fd5b600080fd5b6000808335600160200384360303811261484a5761484961481e565b5b80840192508235915067ffffffffffffffff82111561486c5761486b614823565b5b60208301925060018202360383131561488857614887614828565b5b509250929050565b7f74617267657420746f6b656e20616c7265616479206578697374000000000000600082015250565b60006148c6601a836136cf565b91506148d182614890565b602082019050919050565b600060208201905081810360008301526148f5816148b9565b9050919050565b6000604082019050614911600083018561375d565b61491e602083018461369a565b9392505050565b60008151905061493481613413565b92915050565b6000602082840312156149505761494f6133ff565b5b600061495e84828501614925565b91505092915050565b600081905092915050565b600061497e8385614967565b935061498b8385846141d7565b82840190509392505050565b60006149a4828486614972565b91508190509392505050565b600067ffffffffffffffff82169050919050565b6149cd816149b0565b81146149d857600080fd5b50565b6000813590506149ea816149c4565b92915050565b600060208284031215614a0657614a056133ff565b5b6000614a14848285016149db565b91505092915050565b7f696e76616c6964207377617020726174696f0000000000000000000000000000600082015250565b6000614a536012836136cf565b9150614a5e82614a1d565b602082019050919050565b60006020820190508181036000830152614a8281614a46565b9050919050565b600080fd5b600080fd5b600060808284031215614aa957614aa8614a89565b5b614ab36080613827565b90506000614ac384828501613523565b600083015250602082013567ffffffffffffffff811115614ae757614ae6614a8e565b5b614af384828501614228565b6020830152506040614b07848285016149db565b6040830152506060614b1b848285016149db565b60608301525092915050565b6000614b333683614a93565b9050919050565b6000614b4683856136cf565b9350614b538385846141d7565b614b5c83613713565b840190509392505050565b6000606082019050614b7c600083018761375d565b614b89602083018661376c565b8181036040830152614b9c818486614b3a565b905095945050505050565b7f4e6f207065726d697373696f6e00000000000000000000000000000000000000600082015250565b6000614bdd600d836136cf565b9150614be882614ba7565b602082019050919050565b60006020820190508181036000830152614c0c81614bd0565b9050919050565b7f6e6f742070617573656400000000000000000000000000000000000000000000600082015250565b6000614c49600a836136cf565b9150614c5482614c13565b602082019050919050565b60006020820190508181036000830152614c7881614c3c565b9050919050565b7f696e76616c696420746f6b656e732f66726f6d436861696e49647320696e707560008201527f7400000000000000000000000000000000000000000000000000000000000000602082015250565b6000614cdb6021836136cf565b9150614ce682614c7f565b604082019050919050565b60006020820190508181036000830152614d0a81614cce565b9050919050565b7f4e487b7100000000000000000000000000000000000000000000000000000000600052603260045260246000fd5b7f6e6f207065726d697373696f6e20746f207472616e736d697400000000000000600082015250565b6000614d766019836136cf565b9150614d8182614d40565b602082019050919050565b60006020820190508181036000830152614da581614d69565b9050919050565b600060ff82169050919050565b6000614dc482614dac565b9150614dcf83614dac565b92508260ff03821115614de557614de461462f565b5b828201905092915050565b614df981614dac565b82525050565b6000608082019050614e14600083018761375d565b614e216020830186614df0565b614e2e604083018561375d565b614e3b606083018461375d565b95945050505050565b600081519050919050565b600082825260208201905092915050565b6000819050602082019050919050565b6000614e7c8383613edf565b60208301905092915050565b6000602082019050919050565b6000614ea082614e44565b614eaa8185614e4f565b9350614eb583614e60565b8060005b83811015614ee6578151614ecd8882614e70565b9750614ed883614e88565b925050600181019050614eb9565b5085935050505092915050565b6000604082019050614f08600083018561375d565b8181036020830152614f1a8184614e95565b90509392505050565b7f6e6f207065726d697373696f6e20746f207369676e0000000000000000000000600082015250565b6000614f596015836136cf565b9150614f6482614f23565b602082019050919050565b60006020820190508181036000830152614f8881614f4c565b9050919050565b7f616c7265616479207265636f7264656400000000000000000000000000000000600082015250565b6000614fc56010836136cf565b9150614fd082614f8f565b602082019050919050565b60006020820190508181036000830152614ff481614fb8565b9050919050565b600081519050919050565b600082825260208201905092915050565b6000819050602082019050919050565b61503081613409565b82525050565b60006150428383615027565b60208301905092915050565b6000602082019050919050565b600061506682614ffb565b6150708185615006565b935061507b83615017565b8060005b838110156150ac5781516150938882615036565b975061509e8361504e565b92505060018101905061507f565b5085935050505092915050565b60006040820190506150ce600083018561375d565b81810360208301526150e0818461505b565b90509392505050565b6000815190506150f8816134ae565b92915050565b600060208284031215615114576151136133ff565b5b6000615122848285016150e9565b91505092915050565b6000608082019050615140600083018761375d565b61514d602083018661376c565b61515a604083018561369a565b615167606083018461375d565b95945050505050565b7f616c726561647920706175736564000000000000000000000000000000000000600082015250565b60006151a6600e836136cf565b91506151b182615170565b602082019050919050565b600060208201905081810360008301526151d581615199565b9050919050565b7f496e76616c696420696e70757400000000000000000000000000000000000000600082015250565b6000615212600d836136cf565b915061521d826151dc565b602082019050919050565b6000602082019050818103600083015261524181615205565b9050919050565b6000615253826134a4565b915061525e836134a4565b9250827fffffffffffffffffffffffffffffffffffffffffffffffffffffffffffffffff038211156152935761529261462f565b5b828201905092915050565b7f6465706f73697473206e6f7420656e6f75676800000000000000000000000000600082015250565b60006152d46013836136cf565b91506152df8261529e565b602082019050919050565b60006020820190508181036000830152615303816152c7565b9050919050565b600067ffffffffffffffff821115615325576153246137c7565b5b602082029050602081019050919050565b60006153496153448461530a565b613827565b9050808382526020820190506020840283018581111561536c5761536b613449565b5b835b8181101561539557806153818882614925565b84526020840193505060208101905061536e565b5050509392505050565b600082601f8301126153b4576153b361343f565b5b81516153c4848260208601615336565b91505092915050565b600067ffffffffffffffff8211156153e8576153e76137c7565b5b602082029050602081019050919050565b600061540c615407846153cd565b613827565b9050808382526020820190506020840283018581111561542f5761542e613449565b5b835b81811015615458578061544488826146d2565b845260208401935050602081019050615431565b5050509392505050565b600082601f8301126154775761547661343f565b5b81516154878482602086016153f9565b91505092915050565b600080600080608085870312156154aa576154a96133ff565b5b60006154b8878288016150e9565b94505060206154c9878288016150e9565b935050604085015167ffffffffffffffff8111156154ea576154e9613404565b5b6154f68782880161539f565b925050606085015167ffffffffffffffff81111561551757615516613404565b5b61552387828801615462565b91505092959194509250565b600081519050919050565b600082825260208201905092915050565b6000819050602082019050919050565b61556481613ab7565b82525050565b6000615576838361555b565b60208301905092915050565b6000602082019050919050565b600061559a8261552f565b6155a4818561553a565b93506155af8361554b565b8060005b838110156155e05781516155c7888261556a565b97506155d283615582565b9250506001810190506155b3565b5085935050505092915050565b600060a082019050615602600083018861375d565b61560f602083018761369a565b61561c604083018661375d565b818103606083015261562e818561505b565b90508181036080830152615642818461558f565b90509695505050505050565b7f6661696c656420746f207377617020746f6b656e000000000000000000000000600082015250565b60006156846014836136cf565b915061568f8261564e565b602082019050919050565b600060208201905081810360008301526156b381615677565b9050919050565b7f616c726561647920696e697469616c697a656400000000000000000000000000600082015250565b60006156f06013836136cf565b91506156fb826156ba565b602082019050919050565b6000602082019050818103600083015261571f816156e3565b9050919050565b6000615731826136c4565b61573b818561457a565b935061574b8185602086016136e0565b80840191505092915050565b60006157638284615726565b915081905092915050565b600081519050919050565b60006157848261576e565b61578e8185614967565b935061579e8185602086016136e0565b80840191505092915050565b60006157b68284615779565b915081905092915050565b6000819050919050565b6157dc6157d7826134a4565b6157c1565b82525050565b60006157ee82846157cb565b60208201915081905092915050565b60008160601b9050919050565b6000615815826157fd565b9050919050565b60006158278261580a565b9050919050565b61583f61583a826134fa565b61581c565b82525050565b6000615851828461582e565b60148201915081905092915050565b6000606082019050615875600083018661375d565b615882602083018561375d565b61588f604083018461375d565b949350505050565b7f4f776e61626c653a206e6577206f776e657220697320746865207a65726f206160008201527f6464726573730000000000000000000000000000000000000000000000000000602082015250565b60006158f36026836136cf565b91506158fe82615897565b604082019050919050565b60006020820190508181036000830152615922816158e6565b9050919050565b6000615934826134a4565b915061593f836134a4565b9250817fffffffffffffffffffffffffffffffffffffffffffffffffffffffffffffffff04831182151516156159785761597761462f565b5b828202905092915050565b7f4e487b7100000000000000000000000000000000000000000000000000000000600052601260045260246000fd5b60006159bd826134a4565b91506159c8836134a4565b9250826159d8576159d7615983565b5b828204905092915050565b60006159ef828561582e565b6014820191506159ff8284615726565b91508190509392505050565b7f4f776e61626c653a2063616c6c6572206973206e6f7420746865206f776e6572600082015250565b6000615a416020836136cf565b9150615a4c82615a0b565b602082019050919050565b60006020820190508181036000830152615a7081615a34565b9050919050565b60008060008060808587031215615a9157615a906133ff565b5b6000615a9f878288016150e9565b9450506020615ab0878288016150e9565b9350506040615ac1878288016150e9565b9250506060615ad287828801614925565b91505092959194509250565b7f74617267657420746f6b656e206e6f7420657869737400000000000000000000600082015250565b6000615b146016836136cf565b9150615b1f82615ade565b602082019050919050565b60006020820190508181036000830152615b4381615b07565b9050919050565b7f696e76616c696420746f6b656e00000000000000000000000000000000000000600082015250565b6000615b80600d836136cf565b9150615b8b82615b4a565b602082019050919050565b60006020820190508181036000830152615baf81615b73565b9050919050565b7f5361666545524332303a204552433230206f7065726174696f6e20646964206e60008201527f6f74207375636365656400000000000000000000000000000000000000000000602082015250565b6000615c12602a836136cf565b9150615c1d82615bb6565b604082019050919050565b60006020820190508181036000830152615c4181615c05565b9050919050565b7f416464726573733a20696e73756666696369656e742062616c616e636520666f60008201527f722063616c6c0000000000000000000000000000000000000000000000000000602082015250565b6000615ca46026836136cf565b9150615caf82615c48565b604082019050919050565b60006020820190508181036000830152615cd381615c97565b9050919050565b7f416464726573733a2063616c6c20746f206e6f6e2d636f6e7472616374000000600082015250565b6000615d10601d836136cf565b9150615d1b82615cda565b602082019050919050565b60006020820190508181036000830152615d3f81615d03565b9050919050565b60006020820190508181036000830152615d608184613724565b90509291505056fea264697066735822122078ae1d9f33016f0795fb299d1cb8a9b2c8ced9b8c3f60bb65970f5c3025f371064736f6c63430008090033",
  "linkReferences": {},
  "deployedLinkReferences": {}
}