{
  "_format": "hh-sol-artifact-1",
  "contractName": "BridgeInImplementation",
  "sourceName": "contracts/BridgeInImplementation.sol",
  "abi": [
    {
      "anonymous": false,
      "inputs": [
        {
          "indexed": false,
          "internalType": "string",
          "name": "receiptId",
          "type": "string"
        },
        {
          "indexed": false,
          "internalType": "address",
          "name": "asset",
          "type": "address"
        },
        {
          "indexed": false,
          "internalType": "address",
          "name": "owner",
          "type": "address"
        },
        {
          "indexed": false,
          "internalType": "uint256",
          "name": "amount",
          "type": "uint256"
        }
      ],
      "name": "NewReceipt",
      "type": "event"
    },
    {
      "anonymous": false,
      "inputs": [
        {
          "indexed": true,
          "internalType": "address",
          "name": "previousOwner",
          "type": "address"
        },
        {
          "indexed": true,
          "internalType": "address",
          "name": "newOwner",
          "type": "address"
        }
      ],
      "name": "OwnershipTransferred",
      "type": "event"
    },
    {
      "anonymous": false,
      "inputs": [
        {
          "indexed": false,
          "internalType": "address",
          "name": "token",
          "type": "address"
        },
        {
          "indexed": false,
          "internalType": "string",
          "name": "chainId",
          "type": "string"
        }
      ],
      "name": "TokenAdded",
      "type": "event"
    },
    {
      "anonymous": false,
      "inputs": [
        {
          "indexed": false,
          "internalType": "address",
          "name": "token",
          "type": "address"
        },
        {
          "indexed": false,
          "internalType": "string",
          "name": "chainId",
          "type": "string"
        }
      ],
      "name": "TokenRemoved",
      "type": "event"
    },
    {
      "inputs": [
        {
          "internalType": "bytes32",
          "name": "tokenKey",
          "type": "bytes32"
        },
        {
          "internalType": "uint256",
          "name": "receiptIndex",
          "type": "uint256"
        }
      ],
      "name": "_generateReceiptId",
      "outputs": [
        {
          "internalType": "string",
          "name": "",
          "type": "string"
        }
      ],
      "stateMutability": "pure",
      "type": "function"
    },
    {
      "inputs": [
        {
          "internalType": "address",
          "name": "token",
          "type": "address"
        },
        {
          "internalType": "string",
          "name": "chainId",
          "type": "string"
        }
      ],
      "name": "_generateTokenKey",
      "outputs": [
        {
          "internalType": "bytes32",
          "name": "",
          "type": "bytes32"
        }
      ],
      "stateMutability": "pure",
      "type": "function"
    },
    {
      "inputs": [
        {
          "internalType": "address",
          "name": "token",
          "type": "address"
        },
        {
          "internalType": "string",
          "name": "chainId",
          "type": "string"
        }
      ],
      "name": "addToken",
      "outputs": [],
      "stateMutability": "nonpayable",
      "type": "function"
    },
    {
      "inputs": [
        {
          "internalType": "address",
          "name": "token",
          "type": "address"
        },
        {
          "internalType": "uint256",
          "name": "amount",
          "type": "uint256"
        },
        {
          "internalType": "string",
          "name": "targetChainId",
          "type": "string"
        },
        {
          "internalType": "string",
          "name": "targetAddress",
          "type": "string"
        }
      ],
      "name": "createReceipt",
      "outputs": [],
      "stateMutability": "nonpayable",
      "type": "function"
    },
    {
      "inputs": [
        {
          "internalType": "address",
          "name": "user",
          "type": "address"
        },
        {
          "internalType": "address",
          "name": "token",
          "type": "address"
        },
        {
          "internalType": "string",
          "name": "targetChainId",
          "type": "string"
        }
      ],
      "name": "getMyReceipts",
      "outputs": [
        {
          "internalType": "string[]",
          "name": "receipt_ids",
          "type": "string[]"
        }
      ],
      "stateMutability": "view",
      "type": "function"
    },
    {
      "inputs": [
        {
          "internalType": "address[]",
          "name": "tokens",
          "type": "address[]"
        },
        {
          "internalType": "string[]",
          "name": "targetChainIds",
          "type": "string[]"
        }
      ],
      "name": "getSendReceiptIndex",
      "outputs": [
        {
          "internalType": "uint256[]",
          "name": "indexes",
          "type": "uint256[]"
        }
      ],
      "stateMutability": "view",
      "type": "function"
    },
    {
      "inputs": [
        {
          "internalType": "address",
          "name": "token",
          "type": "address"
        },
        {
          "internalType": "string",
          "name": "targetChainId",
          "type": "string"
        },
        {
          "internalType": "uint256",
          "name": "fromIndex",
          "type": "uint256"
        },
        {
          "internalType": "uint256",
          "name": "endIndex",
          "type": "uint256"
        }
      ],
      "name": "getSendReceiptInfos",
      "outputs": [
        {
          "components": [
            {
              "internalType": "address",
              "name": "asset",
              "type": "address"
            },
            {
              "internalType": "address",
              "name": "owner",
              "type": "address"
            },
            {
              "internalType": "uint256",
              "name": "amount",
              "type": "uint256"
            },
            {
              "internalType": "uint256",
              "name": "blockHeight",
              "type": "uint256"
            },
            {
              "internalType": "uint256",
              "name": "blockTime",
              "type": "uint256"
            },
            {
              "internalType": "string",
              "name": "targetChainId",
              "type": "string"
            },
            {
              "internalType": "string",
              "name": "targetAddress",
              "type": "string"
            },
            {
              "internalType": "string",
              "name": "receiptId",
              "type": "string"
            }
          ],
          "internalType": "struct BridgeInImplementation.Receipt[]",
          "name": "_receipts",
          "type": "tuple[]"
        }
      ],
      "stateMutability": "view",
      "type": "function"
    },
    {
      "inputs": [
        {
          "internalType": "address",
          "name": "token",
          "type": "address"
        },
        {
          "internalType": "string",
          "name": "chainId",
          "type": "string"
        }
      ],
      "name": "getTotalAmountInReceipts",
      "outputs": [
        {
          "internalType": "uint256",
          "name": "",
          "type": "uint256"
        }
      ],
      "stateMutability": "view",
      "type": "function"
    },
    {
      "inputs": [
        {
          "internalType": "address",
          "name": "_mutiSigWallet",
          "type": "address"
        }
      ],
      "name": "initialize",
      "outputs": [],
      "stateMutability": "nonpayable",
      "type": "function"
    },
    {
      "inputs": [],
      "name": "isPaused",
      "outputs": [
        {
          "internalType": "bool",
          "name": "",
          "type": "bool"
        }
      ],
      "stateMutability": "view",
      "type": "function"
    },
    {
      "inputs": [
        {
          "internalType": "address",
          "name": "token",
          "type": "address"
        },
        {
          "internalType": "string",
          "name": "chainId",
          "type": "string"
        }
      ],
      "name": "isSupported",
      "outputs": [
        {
          "internalType": "bool",
          "name": "",
          "type": "bool"
        }
      ],
      "stateMutability": "view",
      "type": "function"
    },
    {
      "inputs": [],
      "name": "owner",
      "outputs": [
        {
          "internalType": "address",
          "name": "",
          "type": "address"
        }
      ],
      "stateMutability": "view",
      "type": "function"
    },
    {
      "inputs": [],
      "name": "pause",
      "outputs": [],
      "stateMutability": "nonpayable",
      "type": "function"
    },
    {
      "inputs": [
        {
          "internalType": "address",
          "name": "token",
          "type": "address"
        },
        {
          "internalType": "string",
          "name": "chainId",
          "type": "string"
        }
      ],
      "name": "removeToken",
      "outputs": [],
      "stateMutability": "nonpayable",
      "type": "function"
    },
    {
      "inputs": [],
      "name": "renounceOwnership",
      "outputs": [],
      "stateMutability": "nonpayable",
      "type": "function"
    },
    {
      "inputs": [],
      "name": "restart",
      "outputs": [],
      "stateMutability": "nonpayable",
      "type": "function"
    },
    {
      "inputs": [
        {
          "internalType": "address",
          "name": "_bridgeOut",
          "type": "address"
        }
      ],
      "name": "setBridgeOut",
      "outputs": [],
      "stateMutability": "nonpayable",
      "type": "function"
    },
    {
      "inputs": [
        {
          "internalType": "address",
          "name": "newOwner",
          "type": "address"
        }
      ],
      "name": "transferOwnership",
      "outputs": [],
      "stateMutability": "nonpayable",
      "type": "function"
    }
  ],
  "bytecode": "0x60806040523480156200001157600080fd5b5062000032620000266200003860201b60201c565b6200004060201b60201c565b62000104565b600033905090565b60008060009054906101000a900473ffffffffffffffffffffffffffffffffffffffff169050816000806101000a81548173ffffffffffffffffffffffffffffffffffffffff021916908373ffffffffffffffffffffffffffffffffffffffff1602179055508173ffffffffffffffffffffffffffffffffffffffff168173ffffffffffffffffffffffffffffffffffffffff167f8be0079c531659141344cd1fd0a4f28419497f9722a3daafe3b4186f6b6457e060405160405180910390a35050565b61410280620001146000396000f3fe608060405234801561001057600080fd5b50600436106101165760003560e01c80638456cb59116100a257806398cf2dcd1161007157806398cf2dcd146102cb578063b187bd26146102fb578063c4d66de814610319578063e469640a14610335578063f2fde38b1461035157610116565b80638456cb59146102575780638da5cb5b146102615780638f2c7eaf1461027f57806390efb3d81461029b57610116565b8063526da4c5116100e9578063526da4c5146101a15780636da3dbbd146101d15780636df71f6614610201578063715018a61461021d57806381020a341461022757610116565b80631ef3755d1461011b5780632c8da56014610125578063407d83d914610141578063446f95b414610171575b600080fd5b61012361036d565b005b61013f600480360381019061013a919061273f565b6104f2565b005b61015b6004803603810190610156919061273f565b6105f6565b60405161016891906127ba565b60405180910390f35b61018b60048036038101906101869190612916565b610667565b604051610198919061298b565b60405180910390f35b6101bb60048036038101906101b69190612a08565b6106e2565b6040516101c89190612ad0565b60405180910390f35b6101eb60048036038101906101e69190612c0b565b610767565b6040516101f89190612d45565b60405180910390f35b61021b60048036038101906102169190612d67565b6108eb565b005b6102256109c8565b005b610241600480360381019061023c9190612d94565b6109dc565b60405161024e9190612f14565b60405180910390f35b61025f610c06565b005b610269610c7b565b6040516102769190612f45565b60405180910390f35b6102996004803603810190610294919061273f565b610ca4565b005b6102b560048036038101906102b09190612916565b610da7565b6040516102c29190612f6f565b60405180910390f35b6102e560048036038101906102e09190612f8a565b610dd3565b6040516102f291906131a1565b60405180910390f35b61030361123b565b60405161031091906127ba565b60405180910390f35b610333600480360381019061032e9190612d67565b61124e565b005b61034f600480360381019061034a91906131c3565b61132b565b005b61036b60048036038101906103669190612d67565b611986565b005b600360009054906101000a900473ffffffffffffffffffffffffffffffffffffffff1673ffffffffffffffffffffffffffffffffffffffff163373ffffffffffffffffffffffffffffffffffffffff16146103fd576040517f08c379a00000000000000000000000000000000000000000000000000000000081526004016103f4906132b6565b60405180910390fd5b60011515600360149054906101000a900460ff16151514610453576040517f08c379a000000000000000000000000000000000000000000000000000000000815260040161044a90613322565b60405180910390fd5b6000600360146101000a81548160ff021916908315150217905550600260009054906101000a900473ffffffffffffffffffffffffffffffffffffffff1673ffffffffffffffffffffffffffffffffffffffff16631ef3755d6040518163ffffffff1660e01b8152600401600060405180830381600087803b1580156104d857600080fd5b505af11580156104ec573d6000803e3d6000fd5b50505050565b6104fa611a0a565b600061054a8484848080601f016020809104026020016040519081016040528093929190818152602001838380828437600081840152601f19601f82011690508083019250505050505050610667565b9050610560816009611a8890919063ffffffff16565b156105a0576040517f08c379a00000000000000000000000000000000000000000000000000000000081526004016105979061338e565b60405180910390fd5b6105b4816009611a9f90919063ffffffff16565b507f7afee0f1b802cc0f66c67890e26b4566251859cf2cd8de79b86aed7251d9756a8484846040516105e8939291906133db565b60405180910390a150505050565b6000806106478585858080601f016020809104026020016040519081016040528093929190818152602001838380828437600081840152601f19601f82011690508083019250505050505050610667565b905061065d816009611a8890919063ffffffff16565b9150509392505050565b60006002838360405160200161067e929190613491565b60405160208183030381529060405260405161069a9190613500565b602060405180830381855afa1580156106b7573d6000803e3d6000fd5b5050506040513d601f19601f820116820180604052508101906106da919061352c565b905092915050565b606060006106ef84611ab6565b905060006040518060400160405280600181526020017f2e000000000000000000000000000000000000000000000000000000000000008152509050600061073685611af5565b905082828260405160200161074d93929190613559565b604051602081830303815290604052935050505092915050565b6060828290508451146107af576040517f08c379a00000000000000000000000000000000000000000000000000000000081526004016107a6906135fc565b60405180910390fd5b835167ffffffffffffffff8111156107ca576107c96127eb565b5b6040519080825280602002602001820160405280156107f85781602001602082028036833780820191505090505b50905060005b84518110156108e357600061089486838151811061081f5761081e61361c565b5b602002602001015186868581811061083a5761083961361c565b5b905060200281019061084c919061365a565b8080601f016020809104026020016040519081016040528093929190818152602001838380828437600081840152601f19601f82011690508083019250505050505050610667565b9050600060056000838152602001908152602001600020549050808484815181106108c2576108c161361c565b5b602002602001018181525050505080806108db906136ec565b9150506107fe565b509392505050565b6108f3611a0a565b600073ffffffffffffffffffffffffffffffffffffffff16600260009054906101000a900473ffffffffffffffffffffffffffffffffffffffff1673ffffffffffffffffffffffffffffffffffffffff1614610984576040517f08c379a000000000000000000000000000000000000000000000000000000000815260040161097b90613781565b60405180910390fd5b80600260006101000a81548173ffffffffffffffffffffffffffffffffffffffff021916908373ffffffffffffffffffffffffffffffffffffffff16021790555050565b6109d0611a0a565b6109da6000611bcd565b565b60606000610a2e8585858080601f016020809104026020016040519081016040528093929190818152602001838380828437600081840152601f19601f82011690508083019250505050505050610667565b90506000600860008873ffffffffffffffffffffffffffffffffffffffff1673ffffffffffffffffffffffffffffffffffffffff16815260200190815260200160002060008381526020019081526020016000205490508067ffffffffffffffff811115610a9f57610a9e6127eb565b5b604051908082528060200260200182016040528015610ad257816020015b6060815260200190600190039081610abd5790505b50925060005b81811015610bfb57600760008973ffffffffffffffffffffffffffffffffffffffff1673ffffffffffffffffffffffffffffffffffffffff168152602001908152602001600020600084815260200190815260200160002060008281526020019081526020016000208054610b4c906137d0565b80601f0160208091040260200160405190810160405280929190818152602001828054610b78906137d0565b8015610bc55780601f10610b9a57610100808354040283529160200191610bc5565b820191906000526020600020905b815481529060010190602001808311610ba857829003601f168201915b5050505050848281518110610bdd57610bdc61361c565b5b60200260200101819052508080610bf3906136ec565b915050610ad8565b505050949350505050565b610c0e611a0a565b600360149054906101000a900460ff1615610c5e576040517f08c379a0000000000000000000000000000000000000000000000000000000008152600401610c559061384e565b60405180910390fd5b6001600360146101000a81548160ff021916908315150217905550565b60008060009054906101000a900473ffffffffffffffffffffffffffffffffffffffff16905090565b610cac611a0a565b6000610cfc8484848080601f016020809104026020016040519081016040528093929190818152602001838380828437600081840152601f19601f82011690508083019250505050505050610667565b9050610d12816009611a8890919063ffffffff16565b610d51576040517f08c379a0000000000000000000000000000000000000000000000000000000008152600401610d48906138ba565b60405180910390fd5b610d65816009611c9190919063ffffffff16565b507f617a625823f687a1440db57ae598a2ba91f2c2d180bb2adc78e5fbfed162ca33848484604051610d99939291906133db565b60405180910390a150505050565b600080610db48484610667565b9050600660008281526020019081526020016000205491505092915050565b60606000610e258787878080601f016020809104026020016040519081016040528093929190818152602001838380828437600081840152601f19601f82011690508083019250505050505050610667565b9050600060056000838152602001908152602001600020541415610e495750611232565b60056000828152602001908152602001600020548311158015610e6c5750600084115b8015610e785750828411155b610eb7576040517f08c379a0000000000000000000000000000000000000000000000000000000008152600401610eae90613926565b60405180910390fd5b6000610edf6001610ed18787611ca890919063ffffffff16565b611cbe90919063ffffffff16565b90508067ffffffffffffffff811115610efb57610efa6127eb565b5b604051908082528060200260200182016040528015610f3457816020015b610f21612554565b815260200190600190039081610f195790505b50925060005b8181101561122e576004600084815260200190815260200160002060008783610f639190613946565b8152602001908152602001600020604051806101000160405290816000820160009054906101000a900473ffffffffffffffffffffffffffffffffffffffff1673ffffffffffffffffffffffffffffffffffffffff1673ffffffffffffffffffffffffffffffffffffffff1681526020016001820160009054906101000a900473ffffffffffffffffffffffffffffffffffffffff1673ffffffffffffffffffffffffffffffffffffffff1673ffffffffffffffffffffffffffffffffffffffff168152602001600282015481526020016003820154815260200160048201548152602001600582018054611057906137d0565b80601f0160208091040260200160405190810160405280929190818152602001828054611083906137d0565b80156110d05780601f106110a5576101008083540402835291602001916110d0565b820191906000526020600020905b8154815290600101906020018083116110b357829003601f168201915b505050505081526020016006820180546110e9906137d0565b80601f0160208091040260200160405190810160405280929190818152602001828054611115906137d0565b80156111625780601f1061113757610100808354040283529160200191611162565b820191906000526020600020905b81548152906001019060200180831161114557829003601f168201915b5050505050815260200160078201805461117b906137d0565b80601f01602080910402602001604051908101604052809291908181526020018280546111a7906137d0565b80156111f45780601f106111c9576101008083540402835291602001916111f4565b820191906000526020600020905b8154815290600101906020018083116111d757829003601f168201915b5050505050815250508482815181106112105761120f61361c565b5b60200260200101819052508080611226906136ec565b915050610f3a565b5050505b95945050505050565b600360149054906101000a900460ff1681565b611256611a0a565b600073ffffffffffffffffffffffffffffffffffffffff16600360009054906101000a900473ffffffffffffffffffffffffffffffffffffffff1673ffffffffffffffffffffffffffffffffffffffff16146112e7576040517f08c379a00000000000000000000000000000000000000000000000000000000081526004016112de906139e8565b60405180910390fd5b80600360006101000a81548173ffffffffffffffffffffffffffffffffffffffff021916908373ffffffffffffffffffffffffffffffffffffffff16021790555050565b600360149054906101000a900460ff161561137b576040517f08c379a000000000000000000000000000000000000000000000000000000000815260040161137290613a54565b60405180910390fd5b60006113cb8786868080601f016020809104026020016040519081016040528093929190818152602001838380828437600081840152601f19601f82011690508083019250505050505050610667565b90506113e1816009611a8890919063ffffffff16565b611420576040517f08c379a000000000000000000000000000000000000000000000000000000000815260040161141790613ae6565b60405180910390fd5b60008611611463576040517f08c379a000000000000000000000000000000000000000000000000000000000815260040161145a90613b52565b60405180910390fd5b6114903330888a73ffffffffffffffffffffffffffffffffffffffff16611cd4909392919063ffffffff16565b8673ffffffffffffffffffffffffffffffffffffffff1663095ea7b3600260009054906101000a900473ffffffffffffffffffffffffffffffffffffffff16886040518363ffffffff1660e01b81526004016114ed929190613b72565b602060405180830381600087803b15801561150757600080fd5b505af115801561151b573d6000803e3d6000fd5b505050506040513d601f19601f8201168201806040525081019061153f9190613bc7565b50600260009054906101000a900473ffffffffffffffffffffffffffffffffffffffff1673ffffffffffffffffffffffffffffffffffffffff1663d954863c8289896040518463ffffffff1660e01b815260040161159f93929190613bf4565b600060405180830381600087803b1580156115b957600080fd5b505af11580156115cd573d6000803e3d6000fd5b50505050600060056000838152602001908152602001600020600081546115f3906136ec565b9190508190559050600061160783836106e2565b90506040518061010001604052808a73ffffffffffffffffffffffffffffffffffffffff1681526020013373ffffffffffffffffffffffffffffffffffffffff16815260200189815260200143815260200142815260200188888080601f016020809104026020016040519081016040528093929190818152602001838380828437600081840152601f19601f82011690508083019250505050505050815260200186868080601f016020809104026020016040519081016040528093929190818152602001838380828437600081840152601f19601f8201169050808301925050505050505081526020018281525060046000858152602001908152602001600020600084815260200190815260200160002060008201518160000160006101000a81548173ffffffffffffffffffffffffffffffffffffffff021916908373ffffffffffffffffffffffffffffffffffffffff16021790555060208201518160010160006101000a81548173ffffffffffffffffffffffffffffffffffffffff021916908373ffffffffffffffffffffffffffffffffffffffff16021790555060408201518160020155606082015181600301556080820151816004015560a08201518160050190805190602001906117e39291906125c5565b5060c08201518160060190805190602001906118009291906125c5565b5060e082015181600701908051906020019061181d9291906125c5565b50905050611847886006600086815260200190815260200160002054611cbe90919063ffffffff16565b60066000858152602001908152602001600020819055506000600860003373ffffffffffffffffffffffffffffffffffffffff1673ffffffffffffffffffffffffffffffffffffffff168152602001908152602001600020600085815260200190815260200160002060008154809291906118c1906136ec565b91905055905081600760003373ffffffffffffffffffffffffffffffffffffffff1673ffffffffffffffffffffffffffffffffffffffff16815260200190815260200160002060008681526020019081526020016000206000838152602001908152602001600020908051906020019061193c9291906125c5565b507f50ca3994210a330ab9ce981c2856cfdcec3e63e889ae3cea5202478d40dff2d5828b338c6040516119729493929190613c2b565b60405180910390a150505050505050505050565b61198e611a0a565b600073ffffffffffffffffffffffffffffffffffffffff168173ffffffffffffffffffffffffffffffffffffffff1614156119fe576040517f08c379a00000000000000000000000000000000000000000000000000000000081526004016119f590613ce9565b60405180910390fd5b611a0781611bcd565b50565b611a12611d5d565b73ffffffffffffffffffffffffffffffffffffffff16611a30610c7b565b73ffffffffffffffffffffffffffffffffffffffff1614611a86576040517f08c379a0000000000000000000000000000000000000000000000000000000008152600401611a7d90613d55565b60405180910390fd5b565b6000611a978360000183611d65565b905092915050565b6000611aae8360000183611d88565b905092915050565b6060611ac182611df8565b611ace608084901b611df8565b604051602001611adf929190613de2565b6040516020818303038152906040529050919050565b606060006001611b0484612058565b01905060008167ffffffffffffffff811115611b2357611b226127eb565b5b6040519080825280601f01601f191660200182016040528015611b555781602001600182028036833780820191505090505b509050600082602001820190505b600115611bc2578080600190039150507f3031323334353637383961626364656600000000000000000000000000000000600a86061a8153600a8581611bac57611bab613e19565b5b0494506000851415611bbd57611bc2565b611b63565b819350505050919050565b60008060009054906101000a900473ffffffffffffffffffffffffffffffffffffffff169050816000806101000a81548173ffffffffffffffffffffffffffffffffffffffff021916908373ffffffffffffffffffffffffffffffffffffffff1602179055508173ffffffffffffffffffffffffffffffffffffffff168173ffffffffffffffffffffffffffffffffffffffff167f8be0079c531659141344cd1fd0a4f28419497f9722a3daafe3b4186f6b6457e060405160405180910390a35050565b6000611ca083600001836121ab565b905092915050565b60008183611cb69190613e48565b905092915050565b60008183611ccc9190613946565b905092915050565b611d57846323b872dd60e01b858585604051602401611cf593929190613e7c565b604051602081830303815290604052907bffffffffffffffffffffffffffffffffffffffffffffffffffffffff19166020820180517bffffffffffffffffffffffffffffffffffffffffffffffffffffffff83818316178352505050506122bf565b50505050565b600033905090565b600080836001016000848152602001908152602001600020541415905092915050565b6000611d948383611d65565b611ded578260000182908060018154018082558091505060019003906000526020600020016000909190919091505582600001805490508360010160008481526020019081526020016000208190555060019050611df2565b600090505b92915050565b6000604077ffffffffffffffff0000000000000000000000000000000060001b836fffffffffffffffffffffffffffffffff191616901c7fffffffffffffffff00000000000000000000000000000000000000000000000060001b836fffffffffffffffffffffffffffffffff19161617905060207bffffffff000000000000000000000000ffffffff000000000000000060001b8216901c7fffffffff000000000000000000000000ffffffff00000000000000000000000060001b821617905060107dffff000000000000ffff000000000000ffff000000000000ffff0000000060001b8216901c7fffff000000000000ffff000000000000ffff000000000000ffff00000000000060001b821617905060087eff000000ff000000ff000000ff000000ff000000ff000000ff000000ff000060001b8216901c7fff000000ff000000ff000000ff000000ff000000ff000000ff000000ff00000060001b821617905060087f0f000f000f000f000f000f000f000f000f000f000f000f000f000f000f000f0060001b8216901c60047ff000f000f000f000f000f000f000f000f000f000f000f000f000f000f000f00060001b8316901c17905060277f0f0f0f0f0f0f0f0f0f0f0f0f0f0f0f0f0f0f0f0f0f0f0f0f0f0f0f0f0f0f0f0f60047f06060606060606060606060606060606060606060606060606060606060606068460001c6120089190613946565b901c166120159190613eb3565b8160001c7f30303030303030303030303030303030303030303030303030303030303030306120449190613946565b61204e9190613946565b60001b9050919050565b600080600090507a184f03e93ff9f4daa797ed6e38ed64bf6a1f01000000000000000083106120b6577a184f03e93ff9f4daa797ed6e38ed64bf6a1f01000000000000000083816120ac576120ab613e19565b5b0492506040810190505b6d04ee2d6d415b85acef810000000083106120f3576d04ee2d6d415b85acef810000000083816120e9576120e8613e19565b5b0492506020810190505b662386f26fc10000831061212257662386f26fc10000838161211857612117613e19565b5b0492506010810190505b6305f5e100831061214b576305f5e100838161214157612140613e19565b5b0492506008810190505b612710831061217057612710838161216657612165613e19565b5b0492506004810190505b60648310612193576064838161218957612188613e19565b5b0492506002810190505b600a83106121a2576001810190505b80915050919050565b600080836001016000848152602001908152602001600020549050600081146122b35760006001826121dd9190613e48565b90506000600186600001805490506121f59190613e48565b90508181146122645760008660000182815481106122165761221561361c565b5b906000526020600020015490508087600001848154811061223a5761223961361c565b5b90600052602060002001819055508387600101600083815260200190815260200160002081905550505b8560000180548061227857612277613f0d565b5b6001900381819060005260206000200160009055905585600101600086815260200190815260200160002060009055600193505050506122b9565b60009150505b92915050565b6000612321826040518060400160405280602081526020017f5361666545524332303a206c6f772d6c6576656c2063616c6c206661696c65648152508573ffffffffffffffffffffffffffffffffffffffff166123869092919063ffffffff16565b905060008151111561238157808060200190518101906123419190613bc7565b612380576040517f08c379a000000000000000000000000000000000000000000000000000000000815260040161237790613fae565b60405180910390fd5b5b505050565b6060612395848460008561239e565b90509392505050565b6060824710156123e3576040517f08c379a00000000000000000000000000000000000000000000000000000000081526004016123da90614040565b60405180910390fd5b6000808673ffffffffffffffffffffffffffffffffffffffff16858760405161240c9190613500565b60006040518083038185875af1925050503d8060008114612449576040519150601f19603f3d011682016040523d82523d6000602084013e61244e565b606091505b509150915061245f8783838761246b565b92505050949350505050565b606083156124ce576000835114156124c657612486856124e1565b6124c5576040517f08c379a00000000000000000000000000000000000000000000000000000000081526004016124bc906140ac565b60405180910390fd5b5b8290506124d9565b6124d88383612504565b5b949350505050565b6000808273ffffffffffffffffffffffffffffffffffffffff163b119050919050565b6000825111156125175781518083602001fd5b806040517f08c379a000000000000000000000000000000000000000000000000000000000815260040161254b9190612ad0565b60405180910390fd5b604051806101000160405280600073ffffffffffffffffffffffffffffffffffffffff168152602001600073ffffffffffffffffffffffffffffffffffffffff1681526020016000815260200160008152602001600081526020016060815260200160608152602001606081525090565b8280546125d1906137d0565b90600052602060002090601f0160209004810192826125f3576000855561263a565b82601f1061260c57805160ff191683800117855561263a565b8280016001018555821561263a579182015b8281111561263957825182559160200191906001019061261e565b5b509050612647919061264b565b5090565b5b8082111561266457600081600090555060010161264c565b5090565b6000604051905090565b600080fd5b600080fd5b600073ffffffffffffffffffffffffffffffffffffffff82169050919050565b60006126a78261267c565b9050919050565b6126b78161269c565b81146126c257600080fd5b50565b6000813590506126d4816126ae565b92915050565b600080fd5b600080fd5b600080fd5b60008083601f8401126126ff576126fe6126da565b5b8235905067ffffffffffffffff81111561271c5761271b6126df565b5b602083019150836001820283011115612738576127376126e4565b5b9250929050565b60008060006040848603121561275857612757612672565b5b6000612766868287016126c5565b935050602084013567ffffffffffffffff81111561278757612786612677565b5b612793868287016126e9565b92509250509250925092565b60008115159050919050565b6127b48161279f565b82525050565b60006020820190506127cf60008301846127ab565b92915050565b600080fd5b6000601f19601f8301169050919050565b7f4e487b7100000000000000000000000000000000000000000000000000000000600052604160045260246000fd5b612823826127da565b810181811067ffffffffffffffff82111715612842576128416127eb565b5b80604052505050565b6000612855612668565b9050612861828261281a565b919050565b600067ffffffffffffffff821115612881576128806127eb565b5b61288a826127da565b9050602081019050919050565b82818337600083830152505050565b60006128b96128b484612866565b61284b565b9050828152602081018484840111156128d5576128d46127d5565b5b6128e0848285612897565b509392505050565b600082601f8301126128fd576128fc6126da565b5b813561290d8482602086016128a6565b91505092915050565b6000806040838503121561292d5761292c612672565b5b600061293b858286016126c5565b925050602083013567ffffffffffffffff81111561295c5761295b612677565b5b612968858286016128e8565b9150509250929050565b6000819050919050565b61298581612972565b82525050565b60006020820190506129a0600083018461297c565b92915050565b6129af81612972565b81146129ba57600080fd5b50565b6000813590506129cc816129a6565b92915050565b6000819050919050565b6129e5816129d2565b81146129f057600080fd5b50565b600081359050612a02816129dc565b92915050565b60008060408385031215612a1f57612a1e612672565b5b6000612a2d858286016129bd565b9250506020612a3e858286016129f3565b9150509250929050565b600081519050919050565b600082825260208201905092915050565b60005b83811015612a82578082015181840152602081019050612a67565b83811115612a91576000848401525b50505050565b6000612aa282612a48565b612aac8185612a53565b9350612abc818560208601612a64565b612ac5816127da565b840191505092915050565b60006020820190508181036000830152612aea8184612a97565b905092915050565b600067ffffffffffffffff821115612b0d57612b0c6127eb565b5b602082029050602081019050919050565b6000612b31612b2c84612af2565b61284b565b90508083825260208201905060208402830185811115612b5457612b536126e4565b5b835b81811015612b7d5780612b6988826126c5565b845260208401935050602081019050612b56565b5050509392505050565b600082601f830112612b9c57612b9b6126da565b5b8135612bac848260208601612b1e565b91505092915050565b60008083601f840112612bcb57612bca6126da565b5b8235905067ffffffffffffffff811115612be857612be76126df565b5b602083019150836020820283011115612c0457612c036126e4565b5b9250929050565b600080600060408486031215612c2457612c23612672565b5b600084013567ffffffffffffffff811115612c4257612c41612677565b5b612c4e86828701612b87565b935050602084013567ffffffffffffffff811115612c6f57612c6e612677565b5b612c7b86828701612bb5565b92509250509250925092565b600081519050919050565b600082825260208201905092915050565b6000819050602082019050919050565b612cbc816129d2565b82525050565b6000612cce8383612cb3565b60208301905092915050565b6000602082019050919050565b6000612cf282612c87565b612cfc8185612c92565b9350612d0783612ca3565b8060005b83811015612d38578151612d1f8882612cc2565b9750612d2a83612cda565b925050600181019050612d0b565b5085935050505092915050565b60006020820190508181036000830152612d5f8184612ce7565b905092915050565b600060208284031215612d7d57612d7c612672565b5b6000612d8b848285016126c5565b91505092915050565b60008060008060608587031215612dae57612dad612672565b5b6000612dbc878288016126c5565b9450506020612dcd878288016126c5565b935050604085013567ffffffffffffffff811115612dee57612ded612677565b5b612dfa878288016126e9565b925092505092959194509250565b600081519050919050565b600082825260208201905092915050565b6000819050602082019050919050565b600082825260208201905092915050565b6000612e5082612a48565b612e5a8185612e34565b9350612e6a818560208601612a64565b612e73816127da565b840191505092915050565b6000612e8a8383612e45565b905092915050565b6000602082019050919050565b6000612eaa82612e08565b612eb48185612e13565b935083602082028501612ec685612e24565b8060005b85811015612f025784840389528151612ee38582612e7e565b9450612eee83612e92565b925060208a01995050600181019050612eca565b50829750879550505050505092915050565b60006020820190508181036000830152612f2e8184612e9f565b905092915050565b612f3f8161269c565b82525050565b6000602082019050612f5a6000830184612f36565b92915050565b612f69816129d2565b82525050565b6000602082019050612f846000830184612f60565b92915050565b600080600080600060808688031215612fa657612fa5612672565b5b6000612fb4888289016126c5565b955050602086013567ffffffffffffffff811115612fd557612fd4612677565b5b612fe1888289016126e9565b94509450506040612ff4888289016129f3565b9250506060613005888289016129f3565b9150509295509295909350565b600081519050919050565b600082825260208201905092915050565b6000819050602082019050919050565b6130478161269c565b82525050565b600061010083016000830151613066600086018261303e565b506020830151613079602086018261303e565b50604083015161308c6040860182612cb3565b50606083015161309f6060860182612cb3565b5060808301516130b26080860182612cb3565b5060a083015184820360a08601526130ca8282612e45565b91505060c083015184820360c08601526130e48282612e45565b91505060e083015184820360e08601526130fe8282612e45565b9150508091505092915050565b6000613117838361304d565b905092915050565b6000602082019050919050565b600061313782613012565b613141818561301d565b9350836020820285016131538561302e565b8060005b8581101561318f5784840389528151613170858261310b565b945061317b8361311f565b925060208a01995050600181019050613157565b50829750879550505050505092915050565b600060208201905081810360008301526131bb818461312c565b905092915050565b600080600080600080608087890312156131e0576131df612672565b5b60006131ee89828a016126c5565b96505060206131ff89828a016129f3565b955050604087013567ffffffffffffffff8111156132205761321f612677565b5b61322c89828a016126e9565b9450945050606087013567ffffffffffffffff81111561324f5761324e612677565b5b61325b89828a016126e9565b92509250509295509295509295565b7f6f6e6c7920666f722057616c6c65742063616c6c000000000000000000000000600082015250565b60006132a0601483612a53565b91506132ab8261326a565b602082019050919050565b600060208201905081810360008301526132cf81613293565b9050919050565b7f6e6f742070617573656400000000000000000000000000000000000000000000600082015250565b600061330c600a83612a53565b9150613317826132d6565b602082019050919050565b6000602082019050818103600083015261333b816132ff565b9050919050565b7f746f6b656e4b657920616c726561647920616464656400000000000000000000600082015250565b6000613378601683612a53565b915061338382613342565b602082019050919050565b600060208201905081810360008301526133a78161336b565b9050919050565b60006133ba8385612a53565b93506133c7838584612897565b6133d0836127da565b840190509392505050565b60006040820190506133f06000830186612f36565b81810360208301526134038184866133ae565b9050949350505050565b60008160601b9050919050565b60006134258261340d565b9050919050565b60006134378261341a565b9050919050565b61344f61344a8261269c565b61342c565b82525050565b600081905092915050565b600061346b82612a48565b6134758185613455565b9350613485818560208601612a64565b80840191505092915050565b600061349d828561343e565b6014820191506134ad8284613460565b91508190509392505050565b600081519050919050565b600081905092915050565b60006134da826134b9565b6134e481856134c4565b93506134f4818560208601612a64565b80840191505092915050565b600061350c82846134cf565b915081905092915050565b600081519050613526816129a6565b92915050565b60006020828403121561354257613541612672565b5b600061355084828501613517565b91505092915050565b60006135658286613460565b91506135718285613460565b915061357d8284613460565b9150819050949350505050565b7f496e76616c696420746f6b656e732f746172676574436861696e49647320696e60008201527f7075740000000000000000000000000000000000000000000000000000000000602082015250565b60006135e6602383612a53565b91506135f18261358a565b604082019050919050565b60006020820190508181036000830152613615816135d9565b9050919050565b7f4e487b7100000000000000000000000000000000000000000000000000000000600052603260045260246000fd5b600080fd5b600080fd5b600080fd5b600080833560016020038436030381126136775761367661364b565b5b80840192508235915067ffffffffffffffff82111561369957613698613650565b5b6020830192506001820236038313156136b5576136b4613655565b5b509250929050565b7f4e487b7100000000000000000000000000000000000000000000000000000000600052601160045260246000fd5b60006136f7826129d2565b91507fffffffffffffffffffffffffffffffffffffffffffffffffffffffffffffffff82141561372a576137296136bd565b5b600182019050919050565b7f616c726561647920736574000000000000000000000000000000000000000000600082015250565b600061376b600b83612a53565b915061377682613735565b602082019050919050565b6000602082019050818103600083015261379a8161375e565b9050919050565b7f4e487b7100000000000000000000000000000000000000000000000000000000600052602260045260246000fd5b600060028204905060018216806137e857607f821691505b602082108114156137fc576137fb6137a1565b5b50919050565b7f616c726561647920706175736564000000000000000000000000000000000000600082015250565b6000613838600e83612a53565b915061384382613802565b602082019050919050565b600060208201905081810360008301526138678161382b565b9050919050565b7f746f6b656e4b6579206e6f742065786973740000000000000000000000000000600082015250565b60006138a4601283612a53565b91506138af8261386e565b602082019050919050565b600060208201905081810360008301526138d381613897565b9050919050565b7f496e76616c696420696e70757400000000000000000000000000000000000000600082015250565b6000613910600d83612a53565b915061391b826138da565b602082019050919050565b6000602082019050818103600083015261393f81613903565b9050919050565b6000613951826129d2565b915061395c836129d2565b9250827fffffffffffffffffffffffffffffffffffffffffffffffffffffffffffffffff03821115613991576139906136bd565b5b828201905092915050565b7f616c726561647920696e697469616c697a656400000000000000000000000000600082015250565b60006139d2601383612a53565b91506139dd8261399c565b602082019050919050565b60006020820190508181036000830152613a01816139c5565b9050919050565b7f7061757365640000000000000000000000000000000000000000000000000000600082015250565b6000613a3e600683612a53565b9150613a4982613a08565b602082019050919050565b60006020820190508181036000830152613a6d81613a31565b9050919050565b7f546f6b656e206973206e6f7420737570706f727420696e20746861742063686160008201527f696e000000000000000000000000000000000000000000000000000000000000602082015250565b6000613ad0602283612a53565b9150613adb82613a74565b604082019050919050565b60006020820190508181036000830152613aff81613ac3565b9050919050565b7f696e76616c696420616d6f756e74000000000000000000000000000000000000600082015250565b6000613b3c600e83612a53565b9150613b4782613b06565b602082019050919050565b60006020820190508181036000830152613b6b81613b2f565b9050919050565b6000604082019050613b876000830185612f36565b613b946020830184612f60565b9392505050565b613ba48161279f565b8114613baf57600080fd5b50565b600081519050613bc181613b9b565b92915050565b600060208284031215613bdd57613bdc612672565b5b6000613beb84828501613bb2565b91505092915050565b6000606082019050613c09600083018661297c565b613c166020830185612f36565b613c236040830184612f60565b949350505050565b60006080820190508181036000830152613c458187612a97565b9050613c546020830186612f36565b613c616040830185612f36565b613c6e6060830184612f60565b95945050505050565b7f4f776e61626c653a206e6577206f776e657220697320746865207a65726f206160008201527f6464726573730000000000000000000000000000000000000000000000000000602082015250565b6000613cd3602683612a53565b9150613cde82613c77565b604082019050919050565b60006020820190508181036000830152613d0281613cc6565b9050919050565b7f4f776e61626c653a2063616c6c6572206973206e6f7420746865206f776e6572600082015250565b6000613d3f602083612a53565b9150613d4a82613d09565b602082019050919050565b60006020820190508181036000830152613d6e81613d32565b9050919050565b7f3078000000000000000000000000000000000000000000000000000000000000600082015250565b6000613dab600283613455565b9150613db682613d75565b600282019050919050565b6000819050919050565b613ddc613dd782612972565b613dc1565b82525050565b6000613ded82613d9e565b9150613df98285613dcb565b602082019150613e098284613dcb565b6020820191508190509392505050565b7f4e487b7100000000000000000000000000000000000000000000000000000000600052601260045260246000fd5b6000613e53826129d2565b9150613e5e836129d2565b925082821015613e7157613e706136bd565b5b828203905092915050565b6000606082019050613e916000830186612f36565b613e9e6020830185612f36565b613eab6040830184612f60565b949350505050565b6000613ebe826129d2565b9150613ec9836129d2565b9250817fffffffffffffffffffffffffffffffffffffffffffffffffffffffffffffffff0483118215151615613f0257613f016136bd565b5b828202905092915050565b7f4e487b7100000000000000000000000000000000000000000000000000000000600052603160045260246000fd5b7f5361666545524332303a204552433230206f7065726174696f6e20646964206e60008201527f6f74207375636365656400000000000000000000000000000000000000000000602082015250565b6000613f98602a83612a53565b9150613fa382613f3c565b604082019050919050565b60006020820190508181036000830152613fc781613f8b565b9050919050565b7f416464726573733a20696e73756666696369656e742062616c616e636520666f60008201527f722063616c6c0000000000000000000000000000000000000000000000000000602082015250565b600061402a602683612a53565b915061403582613fce565b604082019050919050565b600060208201905081810360008301526140598161401d565b9050919050565b7f416464726573733a2063616c6c20746f206e6f6e2d636f6e7472616374000000600082015250565b6000614096601d83612a53565b91506140a182614060565b602082019050919050565b600060208201905081810360008301526140c581614089565b905091905056fea2646970667358221220ad8c0a1ad0ce12b41cdaa2211338967e94b71871524ea4db18ccfa02ae9ea56364736f6c63430008090033",
  "linkReferences": {},
  "deployedLinkReferences": {}
}